:020000040800F2
:100000000000022071270008310A0008330A0008A6
:10001000350A0008370A0008390A00080000000005
:100020000000000000000000000000003B0A000883
:100030003D0A0008000000003F0A0008410A0008CD
:10004000C1270008C1270008C1270008C1270008F0
:10005000C1270008C1270008490A0008C127000875
:10006000C1270008C1270008C1270008C1270008D0
:10007000550A0008C1270008C1270008C127000849
:10008000C1270008C1270008C1270008C1270008B0
:10009000C1270008C1270008C1270008C1270008A0
:1000A000C1270008650A0008C1270008C127000809
:1000B000C1270008C1270008C1270008C127000880
:1000C000C1270008C1270008C1270008C127000870
:1000D000C1270008750A0008C12700089505000817
:1000E000C1270008C1270008C1270008C127000850
:1000F000C1270008C1270008C1270008C127000840
:10010000C1270008C1270008C1270008C12700082F
:10011000C1270008C1270008C1270008C12700081F
:10012000C1270008C1270008C1270008C12700080F
:10013000C1270008C1270008C1270008C1270008FF
:10014000C1270008C1270008C1270008C1270008EF
:10015000C1270008C1270008850A0008C127000838
:10016000C1270008C1270008C1270008C1270008CF
:10017000C1270008C1270008C127000800000000AF
:08018000C1270008C127000897
:1001880010B5054C237833B9044B13B10448AFF3C9
:1001980000800123237010BD3C04002000000000F3
:1001A8008C29000808B5034B1BB103490348AFF37A
:1001B800008008BD00000000400400208C290008D1
:1001C80053B94AB9002908BF00281CBF4FF0FF31B6
:1001D8004FF0FF3000F06CB9ADF1080C6DE904CEBA
:1001E80000F006F8DDF804E0DDE9022304B070470A
:1001F8002DE9F047089E0D4604468E46002B40F038
:1002080082808A42174646D9B2FA82F24AB1C2F1CE
:10021800200105FA02F320FA01F1974041EA030EA2
:1002280094404FEA1748230CBEFBF8FCB9B208FB10
:100238001CEE43EA0E430CFB01F098420AD9FB1866
:100248000CF1FF3580F01681984240F21381ACF131
:10025800020C3B441B1AA4B2B3FBF8F008FB1033A2
:1002680044EA034400FB01F1A14209D93C1900F119
:10027800FF3380F00181A14240F2FE8002383C4405
:10028800641A40EA0C4000211EB1D4400023C6E99C
:100298000043BDE8F08702B9FFDEB2FA82F2002A15
:1002A8004FD1CB1B4FEA174E1FFA87F80121B3FB3A
:1002B800FEFC250C0EFB1C3345EA034508FB0CF33A
:1002C800AB4207D97D190CF1FF3002D2AB4200F2E4
:1002D800E7808446ED1AA3B2B5FBFEF00EFB10557D
:1002E80043EA054408FB00F8A04507D93C1900F18A
:1002F800FF3302D2A04500F2D7801846A4EB0804C9
:1003080040EA0C40C0E78B4208D9002E00F0AF80CD
:100318000021C6E900050846BDE8F087B3FA83F175
:1003280000294BD1AB4202D3824200F2B780841A33
:1003380065EB030301209E46002EAAD0C6E9004EB5
:10034800A7E7C2F1200C01FA02F3974020FA0CF05B
:100358004FEA174E21FA0CFC1843BCFBFEF1050CC2
:100368000EFB11CC1FFA87F845EA0C4501FB08F390
:10037800AB4204FA02F409D97D1901F1FF3C80F07F
:100388008B80AB4240F2888002393D44EB1A85B23B
:10039800B3FBFEF00EFB103345EA034500FB08F300
:1003A800AB4207D97D1900F1FF3C71D2AB426FD93E
:1003B80002383D44EB1A40EA014178E7C1F1200CCC
:1003C8008B4022FA0CF71F4320FA0CF405FA01F3CC
:1003D8004FEA174E25FA0CF51C43230CB5FBFEF922
:1003E8001FFA87F80EFB195543EA054509FB08FA79
:1003F800AA4502FA01F200FA01F308D97D1909F1B8
:10040800FF3047D2AA4545D9A9F102093D44A5EBD9
:100418000A05A4B2B5FBFEF00EFB105544EA0544EC
:1004280000FB08F8A04507D93C1900F1FF352DD28B
:10043800A0452BD902383C4440EA0940A4EB080403
:10044800A0FB02894C45C6464D4619D316D05EB16D
:10045800B3EB0E0264EB050404FA0CFCCA404CEA48
:100468000202CC40C6E900240021BDE8F0873146ED
:1004780030460EE7AC46EDE6184601E74345E6D2BE
:10048800B8EB020E69EB07050138E0E72846D3E729
:1004980060468FE78146BAE7614677E708464BE74B
:1004A800ACF1020C3D4415E702383C4426E700BF96
:1004B800704700BF00285AD00346002957D0F0B42F
:1004C8000678427846EA0226C6F30A060E80457880
:1004D8008278ED0845EA4215C5F30A054D80827811
:1004E800C078920942EA8002187942EA8022C2F36F
:1004F8000A028A8018795C79400840EAC410C0F37F
:100508000A00C8805C79C4F301148C725C79A40970
:10051800CC729C79DF7944EA07248C811C7A5F7A53
:1005280044EA0724CC819C7ADF7A44EA07240C82C7
:100538001C7B8C745C7BCC749C7BDF7B44EA07243B
:100548008C821C7C5B7C44EA03231BB2A6F5806684
:100558000E80A5F580654D80A2F580628A80A0F5A1
:100568008060C880A3F580630B81F0BC704770473A
:1005780008B503482422811800F0F2F808BD00BF2E
:1005880070040020004870475804002000B583B06C
:100598002F4B1B681A6812F0200F09D00022009216
:1005A8001A6800925B680093009B03B05DF804FB37
:1005B800284A126812F0100FF7D0002201921A6828
:1005C80001925B680193019B234B1B681A6812F424
:1005D800002F1DD11A6822F001021A601E48026815
:1005E8005368C3F124039BB21C490B80242151603A
:1005F800116841F40021116001680A6842F00102A3
:100608000A60122BD1D116491648FFF753FFCCE7E1
:100618001A6822F001021A600F4908684368C3F19A
:1006280024030E4A1380242343600F48036823F4ED
:100638000023036009680B6843F001030B6013880B
:10064800122BB2D106490948FFF734FFADE700BFC6
:100658003C060020004800409C050020B80400200B
:1006680058040020700400202860024094040020F0
:10067800012800D0704708B5064B1B7803B108BDA8
:100688000121044B1970044800F056FF034B187001
:10069800F5E700BFBA04002000000240BB040020B8
:1006A80010B50A4C01224FF48051204600F04BFF50
:1006B80001224FF40061204600F045FF01224FF46B
:1006C8008061204600F03FFF10BD00BF001C0240C3
:1006D80010B50A4C01224FF48051204600F033FF38
:1006E80000224FF40061204600F02DFF00224FF455
:1006F8008061204600F027FF10BD00BF001C0240AB
:1007080010B50A4C00224FF48051204600F01BFF20
:1007180001224FF40061204600F015FF00224FF43B
:100728008061204600F00FFF10BD00BF001C024092
:1007380010B50A4C00224FF48051204600F003FF08
:1007480000224FF40061204600F0FDFE01224FF424
:100758008061204600F0F7FE10BD00BF001C02407B
:1007680010B4164B1B685C6944F040045C61DC689B
:1007780044F01004DC60124B1C68236823F001036A
:1007880023600F4B1B681C6814F0010F04D01C6811
:1007980024F001041C60F4E70A4C9C60D8601961DD
:1007A8005A601A6842F480221A60054B1A68136866
:1007B80043F00103136010BC704700BF3C060020E3
:1007C8009C05002004480040034B1A68536943F015
:1007D80080035361704700BFFC05002010B582B04C
:1007E80000240094124B1A6B42F480021A631A6BAD
:1007F80002F480020092009A01941A6B42F40012EB
:100808001A631B6B03F400130193019B22462146D4
:100818000C2000F083FB0C2000F0B4FB224621469C
:10082800462000F07BFB462000F0ACFB02B010BD78
:100838000038024070B58AB00024059406940794E5
:100848000894099400942B4B1A6B42F001021A6326
:100858001A6B02F001020092009A01941A6B42F09E
:1008680002021A631A6B02F002020192019A0294C0
:100878001A6B42F004021A631A6B02F00402029225
:10088800029A03941A6B42F080021A631A6B02F000
:1008980080020392039A04941A6B42F008021A63C6
:1008A8001B6B03F008030493049B134E22464FF47A
:1008B800E051304600F047FE4FF4E0530593012520
:1008C80006950794089405A9304600F04FFD059554
:1008D8000A4B0693079505A9094800F047FD2246EB
:1008E8002146062000F01AFB062000F04BFB0AB058
:1008F80070BD00BF00380240001C024000003110EB
:100908000000024030B595B03022002108A801F05F
:1009180079FF0024039404940594069407940194A1
:100928001C4B1A6C42F080521A641B6C03F0805303
:100938000193019B0294184B1A6842F480421A6092
:100948001B6803F480430293029B012308934FF42E
:100958008033099302250E954FF480030F930623E5
:100968001093A823119312950423139308A800F059
:10097800FFFD0F230393049505944FF4A0530693AA
:100988004FF480530793052103A801F037F815B0F9
:1009980030BD00BF003802400070004010B500F0C4
:1009A8007FFAFFF7AFFFFFF745FFFFF717FF00F0EC
:1009B80075F800F00FF900F063F900F07BF9FFF724
:1009C800D7FDFFF701FFFFF7DDFD0446FFF768FEDF
:1009D80004E0FFF77DFE01E0FFF7AAFEA37A012BF2
:1009E800F7D0032BF8D1FFF78BFEF7E7704700002D
:1009F80082B0002100910B4B5A6C42F480425A6439
:100A08005A6C02F480420092009A01911A6C42F0EA
:100A180080521A641B6C03F080530193019B02B04F
:100A2800704700BF003802407047FEE7FEE7FEE768
:100A3800FEE770477047704708B500F04BFA08BDED
:100A480008B5012000F086FD08BD000008B5024881
:100A580000F09EFB08BD00BF9C05002008B50248B9
:100A680001F069F908BD00BFBC04002008B50248C0
:100A780001F0DEFD08BD00BFFC05002008B50248F6
:100A880000F086FB08BD00BF3C050020024B4FF07C
:100A980000629A60704700BF00ED00E000B587B0C3
:100AA800002302930393049305930093019316483C
:100AB800164A026044F29F124260836041F2873214
:100AC800C26003614361836101F056FA90B94FF443
:100AD8008053029302A90C4801F033FB68B9002344
:100AE800009301936946084801F098FB40B907B0A4
:100AF8005DF804FBFFF77AFFE9E7FFF777FFEEE71A
:100B0800FFF774FFF3E700BFBC04002000000140BA
:100B180000B583B00368154A934205D0144A93423E
:100B280016D003B05DF804FB00210091114B5A6CFC
:100B380042F001025A645B6C03F001030093009BCE
:100B48000A46192000F0EAF9192000F01BFAE8E734
:100B580000230193074B1A6C42F004021A641B6CC1
:100B680003F004030193019BDBE700BF0000014091
:100B7800000800400038024000B587B00023019308
:100B8800029303930493059302680F4B9A4202D091
:100B980007B05DF804FB002300930C4A116B41F089
:100BA80008011163126B02F008020092009A4FF4D8
:100BB800804201920222029203930493059201A9B2
:100BC800034800F0D3FBE3E7000800400038024088
:100BD800000C024000B58FB000230A930B930C93CE
:100BE8000D93089309930193029303930493059338
:100BF800069307932048214A02604360836045F2C8
:100C08000722C2600361836101F0B6F928BB4FF483
:100C180080530A930AA9184801F093FA00BB1648B2
:100C280001F0C4F9F8B900230893099308A91248F8
:100C380001F0F4FAD0B960230193002302930393DF
:100C48000593082201A90C4801F002FA88B90A485C
:100C5800FFF792FF0FB05DF804FBFFF7C7FED6E77A
:100C6800FFF7C4FEDBE7FFF7C1FEDCE7FFF7BEFED8
:100C7800E1E7FFF7BBFEEAE7FC04002000080040BC
:100C880008B50A480A4B03604FF4E1334360002378
:100C98008360C36003610C2242618361C36101F018
:100CA80039FC00B908BDFFF7A1FEFBE7FC050020F1
:100CB8000010014008B50A480A4B03600A4B43601C
:100CC80000238360C36003610C2242618361C361B6
:100CD80001F020FC00B908BDFFF788FEFBE700BF64
:100CE8003C06002000480040A086010030B58BB0CB
:100CF8000446002305930693079308930993036812
:100D08004B4A934204D04B4A934249D00BB030BD72
:100D180000250195484B5A6C42F010025A645A6CEF
:100D280002F010020192019A02951A6B42F0020237
:100D38001A631B6B03F002030293029BC023059303
:100D4800022306930795032308930723099305A90C
:100D58003A4800F00BFB3A483A4B03604FF0006307
:100D6800436040238360C5604FF48063036145613D
:100D78008561C5614FF440330362456200F08EF926
:100D880058B92F4B23639C6300221146252000F09D
:100D9800C5F8252000F0F6F8B8E7FFF727FEF0E7DA
:100DA80000250395244B1A6C42F480221A641A6CAD
:100DB80002F480220392039A04951A6B42F004020B
:100DC8001A631B6B03F004030493049B4FF4406302
:100DD8000593022306930795032308930723099392
:100DE80005A9194800F0C2FA1848194B03604FF0DA
:100DF800006343608560C5604FF4806303614561AB
:100E08008561C5614FF440330362456200F046F9DD
:100E180058B90E4B63639C6300221146272000F0EB
:100E28007DF8272000F0AEF870E7FFF7DFFDF0E768
:100E38000010014000480040003802400004024011
:100E48003C050020B8640240000802409C050020D0
:100E58002860024010B504460E4B18784FF47A7398
:100E6800B3FBF0F30C4A1068B0FBF3F000F098F80D
:100E780068B90F2C01D901200AE0002221464FF061
:100E8800FF3000F04BF8054B1C60002000E001200B
:100E980010BD00BF04000020000000200800002052
:100EA80008B50B4B1A6842F400721A601A6842F4CB
:100EB80080621A601A6842F480721A60032000F097
:100EC8001BF80020FFF7C6FFFFF792FD002008BDC2
:100ED800003C0240034A1168034B1B780B44136023
:100EE800704700BF7C06002004000020014B1868F2
:100EF800704700BF7C060020074AD36823F4E063EC
:100F08001B041B0C000200F4E060034343F0BF63C2
:100F180043F40033D360704700ED00E030B4174B62
:100F2800DB68C3F30223C3F10704042C28BF04249D
:100F38001D1D062D18D9033B4FF0FF3505FA04F4A3
:100F480021EA0401994005FA03F322EA030319434D
:100F580000280BDB0901C9B200F1604000F56140CF
:100F680080F8001330BC70470023E5E700F00F005D
:100F78000901C9B2024B1954F4E700BF00ED00E0C3
:100F880014ED00E0002807DB00F01F0240090123F0
:100F98009340024A42F82030704700BF00E100E069
:100FA8000138B0F1807F0AD2064B5860064AF0211A
:100FB80082F823100020986007221A6070470120E9
:100FC800704700BF10E000E000ED00E010B40368D7
:100FD800D9B210390B4AA2FB014212090A4CA25C91
:100FE800C2655F2908D923F47F7323F00303043310
:100FF8008365806D10BC704723F47F7323F003036F
:101008008365F6E7ABAAAAAABC290008836A8269A5
:1010180092B9012B0AD0022B02D00BB100207047E5
:10102800C36A13F0807F28D100207047C36AB3F1E8
:10103800C07F24D000207047B2F5005F09D0022B92
:1010480025D9032B25D1C36A13F0807F23D1002033
:101058007047032B03D8DFE803F01404140A0020B8
:101068007047C36A13F0807F0DD100207047C36AB0
:10107800B3F1C07F09D000207047012070470120DC
:1010880070470120704701207047012070470120F8
:1010980070470020704701207047000070B5044673
:1010A800FFF724FF002C5BD00546002384F834307A
:1010B800022384F835302268136823F00103136093
:1010C80023681A6812F0010F0AD0FFF70FFF431BBD
:1010D800052BF5D920236365032084F8350070BDFE
:1010E8001A68204810406168A2680A43E1680A4308
:1010F80021690A4361690A43A1690A43E1690A430C
:10110800216A0A430243616A04291ED01A602668CC
:10111800756925F00705636A1D43042B07D1A36A87
:101128001D43E36A1BB12046FFF770FF90B9756154
:101138002046FFF74BFFE26D3F239340836000207A
:101148006065012384F83530C9E7E16A206B014303
:101158000A43DBE740236365012084F83500BEE7D6
:101168000120BCE73F8010F090F83530DBB2022B4D
:1011780003D08023436501207047052380F835306C
:101188000268136823F00103136000207047000011
:10119800F0B583B0044600230193724B1D68724B6F
:1011A800A3FB0535AD0A876D3E68C26D08239340E1
:1011B800334210D003681A6812F0040F0BD01A6873
:1011C80022F004021A60C26D08239340BB60436D8D
:1011D80043F001034365E26D01239340334209D094
:1011E8002268526912F0800F04D0BB60636D43F02F
:1011F80002036365E26D04239340334209D02268F9
:10120800126812F0020F04D0BB60636D43F0040350
:101218006365E26D10239340334224D0226812683C
:1012280012F0080F1FD0BB6023681A6812F4802FD1
:101238000DD01B6813F4002F04D1236C9BB12046FA
:10124800984710E0A36C73B1204698470BE01A68E2
:1012580012F4807F03D11A6822F008021A60236C06
:101268000BB120469847E26D20239340334255D076
:101278002268126812F0100F50D0BB6094F8353015
:10128800DBB2052B0ED023681A6812F4802F33D0F6
:101298001B6813F4002F2AD1636C002B3ED0204624
:1012A80098473BE02268136823F01603136022680E
:1012B800536923F080035361236CA3B12268136838
:1012C80023F008031360E26D3F239340BB600023C3
:1012D80084F83430012384F83530236D002B3FD057
:1012E800204698473CE0A36C002BE7D1EBE7E36B83
:1012F800A3B12046984711E01A6812F4807F09D1FB
:101308001A6822F010021A60002384F8343001238E
:1013180084F83530E36B0BB120469847636DFBB119
:10132800636D13F0010F17D0052384F83530226858
:10133800136823F001031360019B01330193AB424F
:1013480004D823681B6813F0010FF5D1002384F833
:101358003430012384F83530E36C0BB120469847CC
:1013680003B0F0BD00000020B5814E1B00230F2BF9
:1013780000F2D980F0B583B039E0072200E00022FE
:10138800B2403A430234684E46F82420674A14684B
:10139800EA4324EA05064F6817F4803F01D045EA7E
:1013A8000406624C2660646802EA04064F6817F473
:1013B800003F01D045EA04065C4C6660A46802EA76
:1013C80004064F6817F4801F01D045EA0406574CFD
:1013D800A660E46822404E6816F4001F01D045EA72
:1013E8000402524CE26001330F2B00F29A80012272
:1013F8009A400C6804EA020532EA0404F3D14C6806
:10140800661E012E03D9112C01D0122C12D1866828
:101418005F000324BC4026EA0406CC68BC40344381
:101428008460466826EA02064C68C4F300129A40B3
:1014380032434260C7685E000324B440E24327EAAF
:1014480004078C68B4403C43C4604C68022C01D04B
:10145800122C13D1DF08083750F827E003F00704EF
:101468004FEA840C0F2404FA0CF42EEA040E0C69DB
:1014780004FA0CF444EA0E0440F8274004681440C7
:101488004A6802F00302B240224302604A6812F03E
:10149800805FA8D000220192254A546C44F480440D
:1014A8005464526C02F480420192019A9C08A61C72
:1014B8001D4A52F8267003F0030296000F22B2402C
:1014C80027EA02071B4A90423FF459AF02F58062AF
:1014D80090421AD002F58062904218D002F58062DC
:1014E800904216D002F58062904214D002F58062D4
:1014F800904212D002F58062904210D002F58062CC
:1015080090423FF43AAF08223AE7012238E7022234
:1015180036E7032234E7042232E7052230E70622C1
:101528002EE703B0F0BD704700380140003C014091
:1015380000380240000002400369194201D001202E
:101548007047002070470AB18161704709048161C2
:101558007047000008B5054B5B69034200D108BD20
:10156800024B5861FFF784F8F9E700BF003C0140DF
:10157800002800F0D98170B582B00446036813F0E2
:10158800010F3BD0A64B9B6803F00C03042B2CD017
:10159800A34B9B6803F00C03082B21D06368B3F5B9
:1015A800803F4FD0B3F5A02F52D09D4B1A6822F43C
:1015B80080321A601A6822F480221A606368002B4D
:1015C80050D0FFF793FC0546954B1B6813F4003F7A
:1015D80014D1FFF78BFC401B6428F5D90320AAE13E
:1015E8008F4B5B6813F4800FD8D08D4B1B6813F4B6
:1015F800003F03D06368002B00F09881236813F044
:10160800020F54D0864B9B6813F00C0F3ED0844BCE
:101618009B6803F00C03082B33D0E368002B67D0DA
:10162800804B01221A60FFF761FC05467C4B1B6862
:1016380013F0020F53D1FFF759FC401B0228F5D9CC
:10164800032078E1764A136843F480331360B5E7E2
:10165800734B1A6842F480221A601A6842F4803286
:101668001A60ABE7FFF742FC05466D4B1B6813F4A5
:10167800003FC3D0FFF73AFC401B6428F5D903208C
:1016880059E1674B5B6813F4800FC6D1644B1B6844
:1016980013F0020F03D0E368012B40F04981604A40
:1016A800136823F0F803216943EAC1031360236830
:1016B80013F0080F40D0636963B35B4B01221A60D3
:1016C800FFF714FC0546564B5B6F13F0020F33D13E
:1016D800FFF70CFC401B0228F5D903202BE1504AE8
:1016E800136823F0F803216943EAC1031360DEE7B6
:1016F8004C4B00221A60FFF7F9FB0546484B1B6864
:1017080013F0020FD3D0FFF7F1FB401B0228F5D9E5
:10171800032010E1444B00221A60FFF7E7FB05465F
:101728003F4B5B6F13F0020F06D0FFF7DFFB401B48
:101738000228F5D90320FEE0236813F0040F78D0BF
:10174800374B1B6C13F0805F0DD100230193344B92
:101758001A6C42F080521A641B6C03F08053019398
:10176800019B012500E00025304B1B6813F4807FA6
:1017780021D0A368012B32D0052B36D0284B1A6F05
:1017880022F001021A671A6F22F004021A67A3688E
:10179800002B34D0FFF7AAFB0646214B1B6F13F032
:1017A800020F45D1FFF7A2FB801B41F28833984214
:1017B800F3D90320BFE01D4A136843F48073136014
:1017C800FFF794FB0646194B1B6813F4807FD0D1B2
:1017D800FFF78CFB801B0228F5D90320ABE0104AE9
:1017E800136F43F001031367D1E70D4B1A6F42F0F3
:1017F80004021A671A6F42F001021A67C7E7FFF777
:1018080075FB0646064B1B6F13F0020F10D0FFF74F
:101818006DFB801B41F288339842F3D903208AE09C
:101828000038024000004742800E474200700040E6
:10183800E5B9A369002B7DD0464A926802F00C02F4
:10184800082A51D0022B17D0434B00221A60FFF709
:101858004DFB04463F4B1B6813F0007F42D0FFF757
:1018680045FB001B0228F5D9032064E0394A136CB4
:1018780023F080531364DCE7374B00221A60FFF72C
:1018880035FB0546334B1B6813F0007F06D0FFF786
:101898002DFB401B0228F5D903204CE0E369226A9E
:1018A8001343626A43EA8213A26A5208013A43EA7E
:1018B8000243E26A43EA0263264A5360264B012246
:1018C8001A60FFF713FB0446224B1B6813F0007FD6
:1018D80006D1FFF70BFB001B0228F5D903202AE0ED
:1018E800002028E0002026E0012B26D0194B5B6859
:1018F80003F48001E269914221D103F03F02216A99
:101908008A421ED1616A47F6C0721A408A421AD1C9
:1019180003F44032A16A8A4217D103F07063E26A85
:10192800934214D1002006E001207047012002E014
:10193800012000E0002002B070BD0120FBE701207B
:10194800F9E70120F7E70120F5E70120F3E7012097
:10195800F1E700BF0038024060004742F8B5244B69
:101968009B6803F00C03042B3DD0082B3DD1204B82
:101978005A6802F03F025B6813F4800F12D01C4BC8
:101988005968C1F3881100231A48A1FB0001FEF72A
:1019980017FC174B5B68C3F3014301335B00B0FBD3
:1019A800F3F023E0124B5B68C3F388135C01002556
:1019B800E41A65F10005AE0146EA9466A701381BF2
:1019C80066EB0501CC0044EA5074C500E81844F100
:1019D80000018B0243EA90538402204619460023F3
:1019E800FEF7EEFBD5E7034800E00348F8BD00BF6B
:1019F80000380240001BB7000024F400002800F063
:101A08009B8070B50D4604464F4B1B6803F00F03CF
:101A18008B4208D2CBB24C4A1370136803F00F0301
:101A28008B4240F08B80236813F0020F17D013F01D
:101A3800040F04D0454A936843F4E0539360236845
:101A480013F0080F04D0414A936843F4604393604D
:101A58003E4A936823F0F003A1680B439360236820
:101A680013F0010F32D06368012B21D09A1E012A8E
:101A780025D9364A126812F0020F61D033498A68B4
:101A880022F0030213438B60FFF730FA06462F4B10
:101A98009B6803F00C036268B3EB820F16D0FFF764
:101AA80025FA801B41F288339842F0D9032042E09E
:101AB800264A126812F4003FE0D101203BE0234A95
:101AC800126812F0007FD9D1012034E01E4B1B6848
:101AD80003F00F03AB4207D9EAB21B4B1A701B681D
:101AE80003F00F03AB422DD1236813F0040F06D087
:101AF800164A936823F4E053E1680B439360236824
:101B080013F0080F07D0114A936823F46043216942
:101B180043EAC1039360FFF721FF0C4B9B68C3F3B3
:101B280003130B4AD35CD8400A4B18600A4B186859
:101B3800FFF790F9002070BD012070470120FAE7F7
:101B48000120F8E70120F6E7003C02400038024097
:101B5800A42900080000002008000020014B186894
:101B6800704700BF0000002008B5FFF7F7FF044BDF
:101B78009B68C3F38223034AD35CD84008BD00BFE7
:101B880000380240B429000808B5FFF7E7FF044B06
:101B98009B68C3F34233034AD35CD84008BD00BFF7
:101BA80000380240B429000830B4036A23F0010366
:101BB8000362056A4268846924F073040B681C4355
:101BC80025F002058B682B43104DA84203D005F57C
:101BD8008065A84205D123F00803CD682B4323F084
:101BE80004030A4DA84203D005F58065A84205D133
:101BF80022F440724D6915438A692A434260846120
:101C08004A684263036230BC704700BF000001406D
:101C180030B4036A23F480730362036A4268C469B8
:101C280024F073040D682C4323F400738D6843EA91
:101C38000523124DA84203D005F58065A84206D1B8
:101C480023F40063CD6843EA052323F480630B4D36
:101C5800A84203D005F58065A84207D122F4405276
:101C68004D6942EA05128D6942EA05124260C46173
:101C78004A68C263036230BC704700BF000001407D
:101C880030B4036A23F480530362036A4468C26968
:101C980022F4E6420D6842EA052223F400538D68D7
:101CA80043EA0533094DA84203D005F58065A842EB
:101CB80004D124F480444D6944EA85144460C26127
:101CC8004A680264036230BC704700BF00000140EC
:101CD80030B4036A056A25F001050562846924F0B9
:101CE800F00444EA021423F00A030B4384610362FC
:101CF80030BC704730B4056A25F010050562846968
:101D0800036A24F4704444EA023423F0A00343EA4B
:101D180001138461036230BC7047836823F0700349
:101D28000B4343F007038360704770477047704761
:101D380070477047704710B5044603681A6912F077
:101D4800020F11D0DA6812F0020F0DD06FF0020204
:101D58001A610123037703689B6913F0030F70D09E
:101D6800FFF7E6FF0023237723681A6912F0040FB0
:101D780012D0DA6812F0040F0ED06FF004021A6164
:101D88000223237723689B6913F4407F5FD02046A2
:101D9800FFF7CEFF0023237723681A6912F0080F94
:101DA80012D0DA6812F0080F0ED06FF008021A612C
:101DB800042323772368DB6913F0030F4ED02046F2
:101DC800FFF7B6FF0023237723681A6912F0100F74
:101DD80012D0DA6812F0100F0ED06FF010021A61EC
:101DE800082323772368DB6913F4407F3DD020461E
:101DF800FFF79EFF0023237723681A6912F0010F6B
:101E080003D0DA6812F0010F36D123681A6912F08C
:101E1800800F03D0DA6812F0800F34D123681A6972
:101E280012F0400F03D0DA6812F0400F32D1236865
:101E38001A6912F0200F03D0DA6812F0200F30D19F
:101E480010BDFFF774FF2046FFF773FF8AE72046AF
:101E5800FFF76DFF2046FFF76CFF9BE72046FFF773
:101E680066FF2046FFF765FFACE72046FFF75FFFF8
:101E78002046FFF75EFFBDE76FF001021A612046BA
:101E8800FFF754FFC1E76FF080021A61204600F0A7
:101E98000AFAC3E76FF040021A612046FFF74AFFCB
:101EA800C5E76FF020021A61204600F0FBF9C7E78A
:101EB8000368304A904212D0B0F1804F0FD0A2F59B
:101EC8007C4290420BD002F58062904207D002F526
:101ED8008062904203D002F57842904203D123F009
:101EE80070034A681343234A90422AD0B0F1804FC6
:101EF80027D0A2F57C42904223D002F5806290421E
:101F08001FD002F5806290421BD002F578429042C1
:101F180017D002F57052904213D002F580629042B9
:101F28000FD002F5806290420BD0A2F59832904211
:101F380007D002F58062904203D002F58062904299
:101F480003D123F44073CA68134323F080034A691A
:101F5800134303608B68C3620B688362054B984226
:101F680003D003F58063984201D10B690363012311
:101F78004361704700000140B0B110B5044690F8C5
:101F88003D3063B1022384F83D30214651F8040BFB
:101F9800FFF78EFF012384F83D30002010BD80F844
:101FA8003C30FEF7B5FDEDE701207047B0B110B544
:101FB800044690F83D3063B1022384F83D30214651
:101FC80051F8040BFFF774FF012384F83D3000201B
:101FD80010BD80F83C30FFF7A8FEEDE70120704700
:101FE80030B4036A23F010030362036A4468826909
:101FF80022F4E6420D6842EA052223F020038D68A8
:1020080043EA0513114DA84203D005F58065A8429F
:1020180006D123F08003CD6843EA051323F040037B
:102028000A4DA84203D005F58065A84207D124F4DB
:1020380040644D6944EA85048D6944EA8504446036
:1020480082614A688263036230BC704700000140C5
:1020580038B590F83C30012B66D004460D46012374
:1020680080F83C30022380F83D300C2A1AD8DFE88B
:1020780002F00719191920191919341919194700E3
:102088000068FFF791FD2268936943F008039361A4
:102098002268936923F0040393612268936929698C
:1020A8000B439361012384F83D30002084F83C0001
:1020B80038BD0068FFF794FF2268936943F4006312
:1020C80093612268936923F480639361226893691A
:1020D800296943EA01239361E4E70068FFF798FD63
:1020E8002268D36943F00803D3612268D36923F0D7
:1020F8000403D3612268D36929690B43D361D1E70B
:102108000068FFF7BDFD2268D36943F40063D3611B
:102118002268D36923F48063D3612268D36929696B
:1021280043EA0123D361BDE70220C1E710B4846804
:1021380024F47F4442EA03220A432243826010BC0B
:10214800704790F83C30012B66D010B50446012347
:1021580080F83C30022380F83D300268936823F40D
:102168007F4323F0770393600B68602B40D022D81D
:10217800402B47D00BD9502B0ED1CA68496800684C
:10218800FFF7A6FD50212068FFF7C7FD04E0202BCC
:102198000CD008D9302B09D0012384F83D30002019
:1021A80084F83C0010BD0BB1102BF5D119462068FE
:1021B800FFF7B3FDF0E7702B0ED0B3F5005FEBD15E
:1021C800CB684A6889680068FFF7B0FF226893689F
:1021D80043F480439360DFE7CB684A688968006806
:1021E800FFF7A4FF2268936843F077039360D3E76F
:1021F800CA6849680068FFF77DFD60212068FFF71D
:102208008CFDC9E7CA6849680068FFF761FD40218D
:102218002068FFF782FDBFE70220704790F83C3046
:10222800012B3BD030B4012380F83C30022380F8E6
:102238003D3003685C689D6824F070040A68224396
:102248005A600368164A93421AD0B3F1804F17D0E8
:10225800A2F57C42934213D002F5806293420FD0DC
:1022680002F5806293420BD002F57842934207D080
:1022780002F57052934203D0A2F59432934204D1EE
:1022880025F080054A6815439D60012380F83D309C
:10229800002380F83C30184630BC70470220704755
:1022A80000000140704770470268D36823F49073B8
:1022B800D3600268536923F001035361202380F837
:1022C8003A30704790F83930DBB2212B01D0022028
:1022D80070478368B3F5805F17D0036A5A1C02629F
:1022E8001A7803685A60C38C9BB2013B9BB2C384C3
:1022F8004BB90268D36823F08003D3600268D368BF
:1023080043F04003D36000207047036A1B880268CB
:10231800C3F30803536003691BB9036A02330362FA
:10232800E1E7036A01330362DDE7000070B50446A4
:102338000268136923F44053C1680B43136183682F
:102348000269134342691343C2691A430168CB689F
:1023580023F4164323F00C031343CB60026853693C
:1023680023F4407381690B435361C369B3F5004F8C
:1023780036D00368654A934200F09A8002F580627D
:10238800934200F09580FFF7EFFB0026051846EB17
:1023980006012D1846EB0101CB0043EA5573EA000C
:1023A8001546194663689A009B0F281846EB0101E9
:1023B800FDF706FF564DA5FB00325109642303FBC8
:1023C80011031B013233A5FB03235B0903F0F00261
:1023D80002EB011203F00F03216813448B6093E0B2
:1023E80003684A4A934233D002F5806293422FD061
:1023F800FFF7BAFB0026051846EB06012D1846EB39
:102408000101CB0043EA5573EA0015461946626894
:102418003346921846EB0303281846EB0101FDF7F3
:10242800CFFE3B4DA5FB00325109642303FB11038A
:10243800DB003233A5FB03235B095A0002F4F87270
:1024480002EB011203F00703216813448B605BE081
:10245800FFF79AFB0026051846EB06012D1846EBF8
:102468000101CB0043EA5573EA0015461946626834
:102478003346921846EB0303281846EB0101FDF793
:102488009FFE234DA5FB00325109642303FB110372
:10249800DB003233A5FB03235B095A0002F4F87210
:1024A80002EB011203F00703216813448B602BE051
:1024B800FFF76AFB0026051846EB06012D1846EBC8
:1024C8000101CB0043EA5573EA00154619466368D3
:1024D8009A009B0F281846EB0101FDF771FE0C4D81
:1024E800A5FB00325109642303FB11031B0132339E
:1024F800A5FB03235B0903F0F00202EB011203F0D2
:102508000F03216813448B6070BD00BF00100140A9
:102518001F85EB5158B310B5044690F839300BB30A
:10252800242384F839302268D36823F40053D36015
:102538002046FFF7FBFE2268136923F490431361DA
:102548002268536923F02A0353612268D36843F44D
:102558000053D3600020E063202384F8393084F8E6
:102568003A3010BD80F83830FEF7C0FBD8E70120BC
:102578007047704708B50168CA6822F04002CA600F
:10258800202280F83920FFF7F4FF002008BD7047AB
:1025980008B590F83A30DBB2222B46D18368B3F500
:1025A800805F0FD003690BBB03685A68836A591CA4
:1025B80081621A70C38D9BB2013B9BB2C385F3B194
:1025C800002008BD826A036943B903685B68C3F3E6
:1025D80008031380836A02338362EBE703685B684E
:1025E800DBB21380836A01338362E3E703685B68C5
:1025F800826A511C816203F07F031370DAE7026874
:10260800D36823F02003D3600268D36823F480736F
:10261800D3600268536923F001035361202380F8D3
:102628003A30FFF7B4FF0020CBE70220C9E7704734
:1026380010B5044602681368D168526913F00F0098
:1026480005D113F0200F02D011F0200F13D128B1BB
:1026580012F0010213D111F4907F10D113F0800F02
:1026680002D011F0800F6CD113F0400F02D011F09E
:10267800400F6AD110BD2046FFF78AFFFAE713F032
:10268800010F06D011F4807F03D0E06B40F0010009
:10269800E06313F0040F04D01AB1E06B40F00200BD
:1026A800E06313F0020F04D01AB1E06B40F00400AD
:1026B800E06313F0080F07D011F0200F00D11AB112
:1026C800E26B42F00802E263E26B002AD2D013F018
:1026D800200F02D011F0200F21D123685B6903F08D
:1026E8004003E26B12F0080F00D123B32046FFF736
:1026F800DBFD23685A6912F0400F18D05A6922F09E
:1027080040025A61636B73B1124A1A65606BFEF737
:102718002BFD0028AED0606B036D9847AAE72046D2
:10272800FFF736FFD9E72046FFF781FFA2E72046EB
:10273800FFF77DFF9EE72046FFF779FF0023E3635D
:1027480098E72046FFF7BEFD94E72046FFF712FF03
:1027580090E700BF6127000808B5806B0023C38598
:10276800C384FFF764FF08BDDFF834D0002103E01D
:102778000C4B5B58435004310B480C4B42189A429F
:10278800F6D30B4A02E0002342F8043B094B9A4275
:10279800F9D3FEF77BF900F011F8FEF7FFF8704760
:1027A80000000220DC290008000000203C04002072
:1027B8003C040020A4060020FEE7000070B50D4E82
:1027C8000D4D761BB61006D0002455F8043B013495
:1027D8009847A642F9D1094E094D761B00F0D2F868
:1027E800B61006D0002455F8043B01349847A64299
:1027F800F9D170BDD0290008D0290008D8290008CF
:10280800D0290008F0B4860746D0541E002A3CD0D0
:10281800CAB2034601E0013C37D303F8012B9D07F8
:10282800F9D1032C2AD9CDB245EA05250F2C45EA62
:10283800054534D9A4F1100222F00F0C03F120074A
:102848001609674403F1100242E9045542E90255AA
:102858001032BA42F8D1721C14F00C0F03EB0212BA
:1028680004F00F0613D0331F23F00303043313447B
:1028780042F8045B9342FBD106F003042CB1CAB2C0
:102888001C4403F8012B9C42FBD1F0BC7047344632
:102898001346002CF3D1F8E714460346C1E71A465D
:1028A8002646E0E7024B13B1024800F005B870472E
:1028B80000000000CD280008002301461A461846EB
:1028C80000F01AB838B5084B084D5B1B9C1007D0B0
:1028D800043B1D44013C55F804399847002CF9D1B4
:1028E800BDE8384000F054B8DC290008D8290008B1
:1028F800704700BF704700BF2DE9F047DFF880A0A0
:102908000646DAF8000098460F469146FFF7F0FFB2
:102918001A4B1B68D3F8484124B365681F2D26DC81
:102928005EB9AB1C0135DAF80000656044F8237025
:10293800FFF7E0FF0020BDE8F08704EB85030121E5
:10294800C3F88890D4F88821A9400A43022EC4F815
:102958008821C3F80881E4D1D4F88C311943C4F82C
:102968008C11DEE703F5A674C3F84841D5E7DAF819
:102978000000FFF7BFFF4FF0FF30DCE7C429000875
:1029880038040020F8B500BFF8BC08BC9E46704764
:0C299800F8B500BFF8BC08BC9E467047B4
:1029A40000000000000000000102030406070809FB
:1029B40000000000010203040006101600061016B1
:0429C40010000020DF
:0829C80030D8FF7F0100000080
:0829D000AD280008AD0100086C
:0429D8008901000869
:1029DC000024F400010000001000000000000000C2
:1029EC0000000000FC02002064030020CC03002047
:1029FC0000000000000000000000000000000000CB
:102A0C0000000000000000000000000000000000BA
:102A1C0000000000000000000000000000000000AA
:102A2C00000000000000000000000000000000009A
:102A3C00000000000000000000000000000000008A
:102A4C00000000000000000000000000000000007A
:102A5C00000000000000000000000000000000006A
:102A6C00000000000000000000000000000000005A
:102A7C00000000000000000000000000000000004A
:102A8C000000000000000000010000000000000039
:102A9C000E33CDAB34126DE6ECDE05000B000000FE
:102AAC00000000000000000000000000000000001A
:102ABC00000000000000000000000000000000000A
:102ACC0000000000000000000000000000000000FA
:102ADC0000000000000000000000000000000000EA
:0C2E0C0000000000000000008006002014
:040000050800277157
:00000001FF
