:020000040800F2
:1000000000000220553D00081513000817130008D2
:10001000191300081B1300081D130008000000003E
:100020000000000000000000000000001F13000896
:100030002113000800000000231300082513000806
:10004000A53D0008A53D0008A53D0008A53D000808
:10005000A53D0008A53D00082D130008A53D00089A
:10006000A53D0008A53D0008A53D0008A53D0008E8
:1000700039130008A53D0008A53D0008A53D00086E
:10008000A53D0008A53D0008A53D0008A53D0008C8
:10009000A53D0008A53D0008A53D0008A53D0008B8
:1000A000A53D000849130008A53D0008A53D00082E
:1000B000A53D0008A53D0008A53D0008A53D000898
:1000C000A53D0008A53D0008A53D0008A53D000888
:1000D000A53D0008A53D0008A53D00089D0A0008B3
:1000E000A53D0008A53D0008A53D0008A53D000868
:1000F000A53D0008A53D0008A53D0008A53D000858
:10010000A53D0008A53D0008A53D0008A53D000847
:10011000A53D0008A53D0008A53D0008A53D000837
:10012000A53D0008A53D0008A53D0008A53D000827
:10013000A53D0008A53D0008A53D0008A53D000817
:10014000A53D0008A53D0008A53D0008A53D000807
:10015000A53D0008A53D0008A53D0008A53D0008F7
:10016000A53D0008A53D0008A53D0008A53D0008E7
:10017000A53D0008A53D0008A53D000800000000C1
:08018000A53D0008A53D0008A3
:1001880010B5054C237833B9044B13B10448AFF3C9
:1001980000800123237010BD3C04002000000000F3
:1001A800703F000808B5034B1BB103490348AFF380
:1001B800008008BD0000000040040020703F0008D7
:1001C80080F0004002E000BF81F0004142001FBF04
:1001D8005FEA410392EA030F7FEA226C7FEA236C0D
:1001E8006AD04FEA1262D2EB1363C1BFD218414002
:1001F80048404140B8BF5B42192B88BF704710F098
:10020800004F40F4000020F07F4018BF404211F03A
:10021800004F41F4000121F07F4118BF494292EAA2
:10022800030F3FD0A2F1010241FA03FC10EB0C00CE
:10023800C3F1200301FA03F100F0004302D549425B
:1002480060EB4000B0F5000F13D3B0F1807F06D308
:1002580040084FEA310102F10102FE2A51D2B1F100
:10026800004F40EBC25008BF20F0010040EA0300F5
:100278007047490040EB0000013A28BFB0F5000F75
:10028800EDD2B0FA80FCACF1080CB2EB0C0200FA2B
:100298000CF0AABF00EBC25052421843BCBFD0407A
:1002A8001843704792F0000F81F4000106BF80F4F4
:1002B80000000132013BB5E74FEA41037FEA226CB7
:1002C80018BF7FEA236C21D092EA030F04D092F082
:1002D800000F08BF0846704790EA010F1CBF0020B6
:1002E800704712F07F4F04D1400028BF40F0004013
:1002F800704712F100723CBF00F50000704700F033
:10030800004343F0FE4040F4000070477FEA226259
:1003180016BF08467FEA23630146420206BF5FEA2A
:10032800412390EA010F40F4800070474FF000032A
:1003380004E000BF10F0004348BF40425FEA000CF1
:1003480008BF704743F0964301464FF000001CE099
:1003580050EA010208BF70474FF000030AE000BFEF
:1003680050EA010208BF704711F0004302D540422D
:1003780061EB41015FEA010C02BF8446014600209F
:1003880043F0B64308BFA3F18053A3F50003BCFABA
:100398008CF2083AA3EBC25310DB01FA02FC634467
:1003A80000FA02FCC2F12002BCF1004F20FA02F26E
:1003B80043EB020008BF20F00100704702F1200261
:1003C80001FA02FCC2F1200250EA4C0021FA02F2C2
:1003D80043EB020008BF20EADC7070474FF0FF0CC7
:1003E8001CEAD0521EBF1CEAD15392EA0C0F93EAC2
:1003F8000C0F6FD01A4480EA010C400218BF5FEA64
:1004080041211ED04FF0006343EA501043EA5111D6
:10041800A0FB01310CF00040B1F5000F3EBF4900D0
:1004280041EAD3715B0040EA010062F17F02FD2AD4
:100438001DD8B3F1004F40EBC25008BF20F00100B7
:10044800704790F0000F0CF0004C08BF49024CEACE
:10045800502040EA51207F3AC2BFD2F1FF0340EA60
:10046800C250704740F400004FF00003013A5DDCD1
:1004780012F1190FDCBF00F000407047C2F1000212
:10048800410021FA02F1C2F1200200FA02FC5FEAFF
:10049800310040F1000053EA4C0308BF20EADC7049
:1004A800704792F0000F00F0004C02BF400010F4BB
:1004B800000F013AF9D040EA0C0093F0000F01F068
:1004C800004C02BF490011F4000F013BF9D041EA8A
:1004D8000C018FE70CEAD15392EA0C0F18BF93EA8C
:1004E8000C0F0AD030F0004C18BF31F0004CD8D1B6
:1004F80080EA010000F00040704790F0000F17BF3D
:1005080090F0004F084691F0000F91F0004F14D082
:1005180092EA0C0F01D142020FD193EA0C0F03D1DA
:100528004B0218BF084608D180EA010000F00040DD
:1005380040F0FE4040F40000704740F0FE4040F4B8
:10054800400070474FF0FF0C1CEAD0521EBF1CEA57
:10055800D15392EA0C0F93EA0C0F69D0A2EB030275
:1005680080EA010C49024FEA402037D04FF080530F
:1005780043EA111143EA10130CF000408B4238BFD4
:100588005B0042F17D024FF4000C8B4224BF5B1AE2
:1005980040EA0C00B3EB510F24BFA3EB510340EA30
:1005A8005C00B3EB910F24BFA3EB910340EA9C00DE
:1005B800B3EBD10F24BFA3EBD10340EADC001B014E
:1005C80018BF5FEA1C1CE0D1FD2A3FF650AF8B42F2
:1005D80040EBC25008BF20F0010070470CF0004CFF
:1005E8004CEA50207F32C2BFD2F1FF0340EAC2502A
:1005F800704740F400004FF00003013A37E792F0EB
:10060800000F00F0004C02BF400010F4000F013A48
:10061800F9D040EA0C0093F0000F01F0004C02BF43
:10062800490011F4000F013BF9D041EA0C0195E7AC
:100638000CEAD15392EA0C0F08D142027FF47DAF45
:1006480093EA0C0F7FF470AF084676E793EA0C0F35
:1006580004D14B023FF44CAF08466EE730F0004C33
:1006680018BF31F0004CCAD130F000427FF45CAFC3
:1006780031F000437FF43CAF5FE700BF53B94AB99C
:10068800002908BF00281CBF4FF0FF314FF0FF3092
:1006980000F06CB9ADF1080C6DE904CE00F006F875
:1006A800DDF804E0DDE9022304B070472DE9F047E6
:1006B800089E0D4604468E46002B40F082808A42F2
:1006C800174646D9B2FA82F24AB1C2F1200105FAB8
:1006D80002F320FA01F1974041EA030E94404FEAF1
:1006E8001748230CBEFBF8FCB9B208FB1CEE43EA22
:1006F8000E430CFB01F098420AD9FB180CF1FF35A8
:1007080080F01681984240F21381ACF1020C3B4410
:100718001B1AA4B2B3FBF8F008FB103344EA0344F5
:1007280000FB01F1A14209D93C1900F1FF3380F027
:100738000181A14240F2FE8002383C44641A40EA3A
:100748000C4000211EB1D4400023C6E90043BDE897
:10075800F08702B9FFDEB2FA82F2002A4FD1CB1B32
:100768004FEA174E1FFA87F80121B3FBFEFC250C50
:100778000EFB1C3345EA034508FB0CF3AB4207D9D3
:100788007D190CF1FF3002D2AB4200F2E7808446BB
:10079800ED1AA3B2B5FBFEF00EFB105543EA054473
:1007A80008FB00F8A04507D93C1900F1FF3302D235
:1007B800A04500F2D7801846A4EB080440EA0C4094
:1007C800C0E78B4208D9002E00F0AF800021C6E9AF
:1007D80000050846BDE8F087B3FA83F100294BD13C
:1007E800AB4202D3824200F2B780841A65EB03035E
:1007F80001209E46002EAAD0C6E9004EA7E7C2F106
:10080800200C01FA02F3974020FA0CF04FEA174E39
:1008180021FA0CFC1843BCFBFEF1050C0EFB11CCB5
:100828001FFA87F845EA0C4501FB08F3AB4204FAC6
:1008380002F409D97D1901F1FF3C80F08B80AB42AD
:1008480040F2888002393D44EB1A85B2B3FBFEF0D2
:100858000EFB103345EA034500FB08F3AB4207D90A
:100868007D1900F1FF3C71D2AB426FD902383D448B
:10087800EB1A40EA014178E7C1F1200C8B4022FADB
:100888000CF71F4320FA0CF405FA01F34FEA174E50
:1008980025FA0CF51C43230CB5FBFEF91FFA87F863
:1008A8000EFB195543EA054509FB08FAAA4502FA61
:1008B80001F200FA01F308D97D1909F1FF3047D296
:1008C800AA4545D9A9F102093D44A5EB0A05A4B2F8
:1008D800B5FBFEF00EFB105544EA054400FB08F892
:1008E800A04507D93C1900F1FF352DD2A0452BD9D9
:1008F80002383C4440EA0940A4EB0804A0FB028902
:100908004C45C6464D4619D316D05EB1B3EB0E0220
:1009180064EB050404FA0CFCCA404CEA0202CC4021
:10092800C6E900240021BDE8F087314630460EE7CD
:10093800AC46EDE6184601E74345E6D2B8EB020EB1
:1009480069EB07050138E0E72846D3E760468FE7FB
:100958008146BAE7614677E708464BE7ACF1020CF7
:100968003D4415E702383C4426E700BF704700BF06
:1009780070B582B00D4614460D494FF400720A60F6
:1009880000228A60CA6008220A610A4A06121670A2
:10099800507028129070D57020121071547118126E
:1009A8009071D37101AB044801F0E4FA02B070BD54
:1009B80060040020580400208405002000285AD034
:1009C8000346002957D0F0B40678427846EA022652
:1009D800C6F30A060E8045788278ED0845EA421586
:1009E800C5F30A054D808278C078920942EA8002F0
:1009F800187942EA8022C2F30A028A8018795C795F
:100A0800400840EAC410C0F30A00C8805C79C4F307
:100A180001148C725C79A409CC729C79DF7944EA60
:100A280007248C811C7A5F7A44EA0724CC819C7A5B
:100A3800DF7A44EA07240C821C7B8C745C7BCC74C0
:100A48009C7BDF7B44EA07248C821C7C5B7C44EA29
:100A580003231BB2A6F580660E80A5F580654D8040
:100A6800A2F580628A80A0F58060C880A3F58063C3
:100A78000B81F0BC7047704708B5034824228118E1
:100A880000F0FCF808BD00BF900400200048704743
:100A98007804002000B583B02F4B1B681A6812F049
:100AA800200F09D0002200921A6800925B68009318
:100AB800009B03B05DF804FB284A126812F0100F7F
:100AC800F7D0002201921A6801925B680193019B9A
:100AD800234B1B681A6812F4002F1DD11A6822F0E4
:100AE80001021A601E4802685368C3F124039BB2CE
:100AF8001C490B8024215160116841F400211160C8
:100B080001680A6842F001020A60122BD1D1164925
:100B18001648FFF753FFCCE71A6822F001021A6063
:100B28000F4908684368C3F124030E4A138024233D
:100B380043600F48036823F40023036009680B68C7
:100B480043F001030B601388122BB2D10649094800
:100B5800FFF734FFADE700BF48070020004800401A
:100B6800A8060020D8040020780400209004002063
:100B780028600240B404002010B504460C4B1960EC
:100B880001225A6000229A60194600F0BFFF58B946
:100B9800204600F0C9FE0A21204600F05DFF2046ED
:100BA80000F0B0FF80B210BD00F092FBF0E700BF8C
:100BB800DC04002038B500252C46C72C07D81121A5
:100BC8000848FFF7D9FF05440134E4B2F5E72846A1
:100BD800FFF7ACFB01460448FFF7B4FC034B186071
:100BE80038BD00BFF0040020010070430000002061
:100BF80010B58AB001220892002306930792009349
:100C0800019302930393059304930E4C694620467F
:100C180001F0EAF8204601F07FF90221204601F0B0
:100C28001FFA0E2309930593074C6946204601F0E5
:100C3800DBF8204601F070F90221204601F010FA95
:100C48000AB010BD84050020AC050020012800D0A2
:100C5800704708B5064B1B7803B108BD0121044B4A
:100C68001970044801F01AFD034B1870F5E700BF2E
:100C7800EC04002000000240ED04002010B4164BE4
:100C88001B685C6944F040045C61DC6844F0100453
:100C9800DC60124B1C68236823F0010323600F4BB0
:100CA8001B681C6814F0010F04D01C6824F00104B0
:100CB8001C60F4E70A4C9C60D86019615A601A6895
:100CC80042F480221A60054B1A68136843F0010346
:100CD800136010BC704700BF48070020A80600201A
:100CE8000448004000B585B00023009301930293A7
:100CF80003931548154A02604FF4803242608360BE
:100D08000361037680F82030C362114A8262C360AF
:100D18000122C26180F83030426100F0D9FD68B923
:100D28001123009301230193002302936946064887
:100D380000F0ECFE28B905B05DF804FB00F0C8FA35
:100D4800EEE700F0C5FAF6E7F004002000200140C5
:100D58000100000F00B585B00023009301930293B2
:100D680003931548154A02604FF48032426083604D
:100D78000361037680F82030C362114A8262C3603F
:100D88000122C26180F83030426100F0A1FD68B9EB
:100D98000823009301230193002302936946064820
:100DA80000F0B4FE28B905B05DF804FB00F090FA35
:100DB800EEE700F08DFAF6E7380500200022014042
:100DC8000100000F00B589B0002303930493059335
:100DD8000693079303681B4A934205D01A4A934225
:100DE8000FD009B05DF804FB00230093174B5A6C31
:100DF80042F480725A645B6C03F480730093009B26
:100E0800EFE700220192114B596C41F4806159645B
:100E1800596C01F48061019101990292196B41F0BA
:100E2800200119631B6B03F020030293029B4FF40C
:100E38008063039303230493059203A9044801F0F4
:100E480047FBCEE700200140002201400038024065
:100E58000014024008B50D480D4B0360032343609E
:100E680000238360C3604FF4102202614FF4001224
:100E78004261037643768376C3760377437700F03F
:100E88000DFF00B908BD00F023FAFBE78405002038
:100E98000064004008B50D480D4B03600323436010
:100EA80000238360C3604FF4102202614FF40012E4
:100EB8004261037643768376C3760377437700F0FF
:100EC800EDFE00B908BD00F003FAFBE7AC05002011
:100ED8000068004000B58BB0002305930693079384
:100EE800089309930368374A934205D0364A9342D8
:100EF8002ED00BB05DF804FB344A1368013313603D
:100F0800012B18D000210191314B1A6B42F00802D5
:100F18001A631B6B03F008030193019B03230593DA
:100F280002220692079108930923099305A92948E3
:100F380001F0CEFADDE700230093254B1A6C42F04E
:100F480000721A641B6C03F000730093009BD9E7CE
:100F5800002302931E4B1A6C42F080621A641B6CC9
:100F680003F080630293029B184A136801331360ED
:100F7800012B19D000210491154B1A6B42F0020283
:100F88001A631B6B03F002030493049B602305930D
:100F9800022306930791032308930923099305A9BC
:100FA8000D4801F095FAA4E700230393084B1A6C47
:100FB80042F000721A641B6C03F000730393039BE6
:100FC800D8E700BF006400400068004080050020AA
:100FD80000380240000C02400004024000B583B013
:100FE80000210191094B1A6B42F400121A631B6B22
:100FF80003F400130193019B0A460C2001F054F8F6
:101008000C2001F085F803B05DF804FB00380240BD
:1010180070B58CB000240794089409940A940B9432
:101028000194304B1A6B42F002021A631A6B02F0F9
:1010380002020192019A02941A6B42F001021A63A9
:101048001A6B02F001020292029A03941A6B42F0A0
:1010580008021A631A6B02F008020392039A0494B6
:101068001A6B42F004021A631A6B02F0040204922B
:10107800049A05941A6B42F020021A631A6B02F064
:1010880020020592059A06941A6B42F080021A63B0
:101098001B6B03F080030693069B134E22464FF406
:1010A800E051304601F001FB4FF4E053079301256E
:1010B800089509940A9407A9304601F009FA07959A
:1010C8000A4B0893099507A9094801F001FA224635
:1010D8002146062000F0E8FF062001F019F80CB0C0
:1010E80070BD00BF00380240001C024000003110F3
:1010F8000000024008B50B480B4B03600B4B4360E4
:1011080000238360C3604FF48042026143618361BE
:10111800C361036201F034FC00B908BD00F0D8F8DF
:10112800FBE700BFD405002000580040801A0600E5
:1011380030B589B00023039304930593069307936E
:101148000268144B9A4201D009B030BD00250195C0
:10115800114C236B43F020032363236B03F020031C
:101168000193019B03230393122204920122059207
:1011780006930423079303A9084801F0A9F90295E7
:10118800236C43F480032364236C03F480030293E9
:10119800029BD9E700580040003802400014024082
:1011A80030B595B03022002108A802F01DFE0024B9
:1011B8000394049405940694079401941C4B1A6CA8
:1011C80042F080521A641B6C03F080530193019B18
:1011D8000294184B1A6842F480421A601B6803F4A0
:1011E80080430293029B012308934FF480330993B1
:1011F80002250E954FF480030F9306231093A8231E
:10120800119312950423139308A801F053FD0F239B
:101218000393049505944FF4A05306934FF4805319
:101228000793052103A801F08BFF15B030BD00BF5F
:10123800003802400070004010B500F083FAFFF754
:10124800AFFFFFF7E5FEFFF7C9FE00F089F800F0F1
:1012580023F900F091F9FFF745FDFFF77BFDFFF754
:1012680049FFFFF7F7FDFFF715FE00F06BF902F0F5
:10127800FBFCFFF701FCFFF709FC0446FFF79AFCAB
:10128800FFF7B6FC15E04FF47A731A46194618466C
:10129800FFF76EFB0DE04FF4FA731A46194618462D
:1012A800FFF766FB05E000231A4619461846FFF7C4
:1012B8005FFBE37A012BF6D1A37A012BE3D0032B52
:1012C800E9D0FA231A4619461846FFF751FBF0E70A
:1012D8007047000082B0002100910B4B5A6C42F419
:1012E80080425A645A6C02F480420092009A01913A
:1012F8001A6C42F080521A641B6C03F080530193FD
:10130800019B02B0704700BF003802407047FEE7FB
:10131800FEE7FEE7FEE770477047704708B500F044
:101328002BFA08BD08B5012001F0C6F908BD000078
:1013380008B5024800F0DEFF08BD00BFA80600207F
:1013480008B5024802F099F808BD00BF2806002039
:10135800024B4FF000629A60704700BF00ED00E05A
:1013680000B587B000230293039304930593009379
:1013780001931648164A026044F29F124260836045
:1013880041F28732C26003614361836102F096F9DA
:1013980090B94FF48053029302A90C4802F073FAF3
:1013A80068B90023009301936946084802F0D8FA07
:1013B80040B907B05DF804FBFFF78AFFE9E7FFF7DC
:1013C80087FFEEE7FFF784FFF3E700BF280600205A
:1013D8000000014000B583B00368154A934205D068
:1013E800144A934216D003B05DF804FB0021009123
:1013F800114B5A6C42F001025A645B6C03F0010312
:101408000093009B0A46192000F04EFE192000F0B8
:101418007FFEE8E700230193074B1A6C42F00402B1
:101428001A641B6C03F004030193019BDBE700BF04
:1014380000000140000800400038024000B587B0B5
:1014480000230193029303930493059302680F4BBF
:101458009A4202D007B05DF804FB002300930C4ABF
:10146800116B41F008011163126B02F0080200923F
:10147800009A4FF48042019202220292039304934D
:10148800059201A9034801F023F8E3E700080040AA
:1014980000380240000C024000B58FB000230A93C8
:1014A8000B930C930D930893099301930293039361
:1014B80004930593069307932048214A02604360EA
:1014C800836045F20722C2600361836102F0F6F887
:1014D80028BB4FF480530A930AA9184802F0D3F99D
:1014E80000BB164802F004F9F8B9002308930993E1
:1014F80008A9124802F034FAD0B9602301930023F6
:10150800029303930593082201A90C4802F042F9BB
:1015180088B90A48FFF792FF0FB05DF804FBFFF7A0
:10152800D7FED6E7FFF7D4FEDBE7FFF7D1FEDCE70F
:10153800FFF7CEFEE1E7FFF7CBFEEAE768060020FB
:101548000008004008B50A480A4B03604FF4E1332D
:10155800436000238360C36003610C22426183619E
:10156800C36102F037FB00B908BDFFF7B1FEFBE726
:10157800080700200010014008B50A480A4B03601C
:101588000A4B436000238360C36003610C224261FD
:101598008361C36102F01EFB00B908BDFFF798FE26
:1015A800FBE700BF4807002000480040A086010074
:1015B800F0B58BB00023059306930793089309931E
:1015C8000368454A934205D00446444A93423AD0B8
:1015D8000BB0F0BD00240094414B5A6C42F010024D
:1015E8005A645A6C02F010020092009A01941A6B25
:1015F80042F002021A631A6B02F002020192019A87
:1016080002941A6B42F001021A631B6B03F0010388
:101618000293029B802305930227069707940326CB
:1016280008960725099505A92E4800F051FF4FF4A3
:1016380000730593069707940896099505A92A4803
:1016480000F046FFC4E700250395254B1A6C42F4C9
:1016580080221A641A6C02F480220392039A049579
:101668001A6B42F004021A631B6B03F00403049321
:10167800049B4FF4406305930223069307950323C5
:1016880008930723099305A9184800F021FF184873
:10169800184B03604FF0006343608560C5604FF4EA
:1016A8008063036145618561C5614FF4403303621E
:1016B800456200F0B9FD58B90D4B63639C63002285
:1016C8001146272000F0F0FC272000F021FD7FE7DD
:1016D800FFF7FEFDF0E700BF0010014000480040A2
:1016E80000380240000402400000024000080240A6
:1016F800A80600202860024010B504460E4B187852
:101708004FF47A73B3FBF0F30C4A1068B0FBF3F0B4
:1017180000F00CFD68B90F2C01D901200AE0002265
:1017280021464FF0FF3000F0BFFC054B1C60002045
:1017380000E0012010BD00BF0800002004000020C8
:101748000C00002008B50B4B1A6842F400721A60AE
:101758001A6842F480621A601A6842F480721A6049
:10176800032000F08FFC0020FFF7C6FFFFF7B2FD53
:10177800002008BD003C0240034A1168034B1B7857
:101788000B441360704700BF880700200800002042
:10179800014B1868704700BF880700204A4B5A68F9
:1017A80022F440325A605A6841680A435A60026813
:1017B800536823F48073536002685368016943EAED
:1017C800012353600268536823F040735360026832
:1017D800536881680B4353600268936823F400637D
:1017E800936002689368C1680B439360826A374BC1
:1017F8009A4257D00268936823F070639360026836
:101808009368816A0B4393600268936823F040539E
:10181800936002689368C16A0B4393600268936897
:1018280023F00203936002689368017E43EA410350
:10183800936090F82030002B3FD00268536843F43F
:10184800006353600268536823F46043536001687F
:101858004B68426A013A43EA42334B600268D36AF2
:1018680023F47003D3620168CB6AC269013A43EA80
:101878000253CB620268936823F400739360026892
:10188800936890F8301043EA4123936002689368A4
:1018980023F48063936002689368416943EA812373
:1018A800936070470268936823F0706393600268DE
:1018B800936823F040539360B0E70268536823F4B9
:1018C80000635360CAE700BF002301400100000F16
:1018D80038B310B50446036C43B1236C13F0100FF2
:1018E8000BD00120002384F83C3010BDFFF76AFAC2
:1018F8000023636484F83C30EFE7236C23F48853B7
:1019080023F0020343F0020323642046FFF746FF57
:1019180000206064236C23F0030343F00103236475
:10192800E0E701207047000082B00023019390F89F
:101938003C30012B7DD0012380F83C3003689A6845
:1019480012F0010F13D19A6842F001029A603D4BE0
:101958001B683D4AA2FB03239B0C03EB4303019343
:1019680002E0019B013B0193019B002BF9D1026826
:10197800936813F0010F5ED0036C23F4E06323F047
:10198800010343F480730364536813F4806F05D034
:10199800036C23F4405343F480530364036C13F43F
:1019A800805F1BD0436C23F006034364002380F858
:1019B8003C306FF022031360244B5B6813F01F0F59
:1019C80027D10368224A934211D002F580729342CC
:1019D80007D0204A934214D000202DE0002343640E
:1019E800E4E702F50072526812F01F0FF1D19A680D
:1019F80012F0405F22D19A6842F080429A6000203B
:101A08001AE002F58072526812F0100FEFD0002031
:101A180012E003680E4A934201D000200CE09A6855
:101A280012F0405F0CD19A6842F080429A60002020
:101A380002E0022000E0002002B070470020FBE72F
:101A48000020F9E70400002083DE1B430023014047
:101A5800002001400022014070B504460D4603688D
:101A68009A6812F4806F03D09B6813F4807F19D1B1
:101A7800FFF78EFE064623681A6812F0020F1AD185
:101A8800B5F1FF3FF7D025B1FFF782FE801BA842D2
:101A9800F1D9236C43F004032364002384F83C3019
:101AA80003202CE0036C43F020030364002380F838
:101AB8003C30012023E06FF012021A60236C43F4DB
:101AC8000073236423689A6812F0405F16D1207E61
:101AD800B0B9DA6A12F4700F03D09B6813F4806F00
:101AE8000DD1236C23F480732364236C13F4805F7B
:101AF80005D1236C43F00103236400E0002070BD8E
:101B08000020FCE70368D86C7047000030B482B04E
:101B18000023019390F83C30012B00F0B78001239B
:101B280080F83C300B68092B3ED90568EA689BB2FF
:101B380003EB43031E3B072404FA03F322EA0303DF
:101B4800EB600568EA688C680B8803EB43031E3B6F
:101B580004FA03F31343EB604B68062B3AD8056885
:101B68006A6B03EB8303053B1F2404FA03F322EAA1
:101B780003036B6305686A6B4B6803EB8303053BE0
:101B88000C8804FA03F313436B630268404B9A42D0
:101B980050D002683E4B9A4255D0002380F83C3022
:101BA800184602B030BC704705682A699BB203EB3F
:101BB8004303072404FA03F322EA03032B610568AD
:101BC8002A698C680B8803EB430304FA03F3134375
:101BD8002B61C1E70C2B16D805682A6B03EB83032E
:101BE800233B1F2404FA03F322EA03032B6305684B
:101BF8002A6B4B6803EB8303233B0C8804FA03F33B
:101C080013432B63C1E70568EA6A03EB8303413B8F
:101C18001F2404FA03F322EA0303EB620568EA6A65
:101C28004B6803EB8303413B0C8804FA03F313432B
:101C3800EB62AAE70B68122BABD1164A536843F440
:101C480080035360A5E70B68103B012BA5D8114A08
:101C5800536843F4000353600B68102B9DD10E4B5F
:101C68001B6802F1467202F52E3202F28332A2FBA1
:101C780003239B0C03EB83035B00019302E0019BAE
:101C8800013B0193019B002BF9D186E7022088E7ED
:101C9800002001400023014004000020002800F03B
:101CA800A18038B5044690F82030D3B12268136873
:101CB80023F002031360FFF76BFD054623685A689B
:101CC80012F0020F10D0FFF763FD401B0A28F5D968
:101CD800636A43F400336362052384F820300120EB
:101CE80038BDFFF7F7F8E1E71A6842F001021A6019
:101CF800FFF74EFD054623685A6812F0010F0DD113
:101D0800FFF746FD401B0A28F5D9636A43F4003300
:101D18006362052384F820300120E1E7227E012A4E
:101D28003DD01A6822F080021A60637E012B3BD0F6
:101D38002268136823F040031360A37E012B39D077
:101D48002268136823F020031360E37E012B37D049
:101D58002268136843F010031360237F012B35D0EA
:101D68002268136823F008031360637F012B33D0C4
:101D78002268136823F004031360A368E26813431E
:101D880022691343626913436268013A2168134365
:101D9800CB6100206062012384F82030A0E71A6834
:101DA80042F080021A60C0E72268136843F04003DB
:101DB8001360C2E72268136843F020031360C4E786
:101DC8002268136823F010031360C6E722681368BB
:101DD80043F008031360C8E72268136843F004035C
:101DE8001360CAE70120704790F82030013BDBB24E
:101DF800012B05D9436A43F48023436201207047CD
:101E080070B4444BD3F8002242F00102C3F8002218
:101E1800D3F8002222F47C52C3F80022D3F800221F
:101E2800486A42EA0022C3F800224A6902F01F0207
:101E3800012000FA02F2D3F81C02D44320EA02007F
:101E4800C3F81C02CB69B3B9324BD3F80C0220405B
:101E5800C3F80C02CE688D88486945EA06454830C3
:101E680043F830508E6808884D6940EA0640483586
:101E780003EBC5035860CB69012B1DD08B69002B80
:101E880032D12448D0F804322340C0F804320B6918
:101E98008BBB204BD3F814020440C3F814420B6ADE
:101EA800012B2FD01B4AD2F8003223F00103C2F8CD
:101EB8000032002070BC7047164BD3F80C02104358
:101EC800C3F80C020E688D88486945EA0645483013
:101ED80043F830508E6888894D6940EA0640483595
:101EE80003EBC5035860C9E70A48D0F80432134326
:101EF800C0F80432CBE70748D0F814321343C0F8CF
:101F08001432CCE70349D1F81C321A43C1F81C2219
:101F1800C8E700BF0064004070B5044690F8205040
:101F2800EDB2012D06D0436A43F400234362012534
:101F3800284670BD022380F820300268136823F019
:101F480001031360FFF724FC064623685B6813F05F
:101F5800010F0CD0FFF71CFC831B0A2BF5D9636A11
:101F680043F400336362052384F82030E0E700255A
:101F78006562DDE770B490F820400568AD68013C03
:101F8800E4B2012C65D815F0E05F5CD0C5F30164BC
:101F9800022C05D9436A43F40003436201205DE043
:101FA8000125A5401D608B68002B39D10E68CB68D0
:101FB800056843EA465604F118031B01EE5003680E
:101FC8000D6904F1180603EB06135D600B7D012B08
:101FD80031D0D17993791B0443EA0163517943EAFB
:101FE8000123157901682B4301EB0411C1F88C31E9
:101FF800D17893781B0443EA0163517843EA0123BB
:10200800117802680B4302EB0412C2F888310268A7
:1020180018342401135943F00103135100201DE023
:102028004D6843EAC503CD6806682B4304F11805DB
:102038002D017351C3E7036803EB0613596841F494
:1020480080715960C5E7436A43F400134362012075
:1020580004E0436A43F480234362012070BC704764
:1020680090F82030013BDBB2012B05D9436A43F4D9
:102078008023436201207047026853691943516104
:1020880000207047074AD36823F4E0631B041B0C45
:10209800000200F4E060034343F0BF6343F40033FD
:1020A800D360704700ED00E030B4174BDB68C3F332
:1020B8000223C3F10704042C28BF04241D1D062D88
:1020C80018D9033B4FF0FF3505FA04F421EA04015F
:1020D800994005FA03F322EA0303194300280BDBAE
:1020E8000901C9B200F1604000F5614080F80013B1
:1020F80030BC70470023E5E700F00F000901C9B2C2
:10210800024B1954F4E700BF00ED00E014ED00E0C5
:10211800002807DB00F01F02400901239340024A10
:1021280042F82030704700BF00E100E00138B0F10C
:10213800807F0AD2064B5860064AF02182F82310A5
:102148000020986007221A6070470120704700BF7E
:1021580010E000E000ED00E010B40368D9B21039D7
:102168000B4AA2FB014212090A4CA25CC2655F2914
:1021780008D923F47F7323F0030304338365806D48
:1021880010BC704723F47F7323F003038365F6E7DD
:10219800ABAAAAAAA03F0008836A826992B9012B58
:1021A8000AD0022B02D00BB100207047C36A13F08B
:1021B800807F28D100207047C36AB3F1C07F24D044
:1021C80000207047B2F5005F09D0022B25D9032BF8
:1021D80025D1C36A13F0807F23D100207047032BD9
:1021E80003D8DFE803F01404140A00207047C36A18
:1021F80013F0807F0DD100207047C36AB3F1C07F10
:1022080009D0002070470120704701207047012045
:102218007047012070470120704701207047002057
:10222800704701207047000070B50446FFF7B0FA08
:10223800002C5BD00546002384F83430022384F850
:1022480035302268136823F00103136023681A6885
:1022580012F0010F0AD0FFF79BFA431B052BF5D9A3
:1022680020236365032084F8350070BD1A68204870
:1022780010406168A2680A43E1680A4321690A4379
:1022880061690A43A1690A43E1690A43216A0A4369
:102298000243616A04291ED01A602668756925F010
:1022A8000705636A1D43042B07D1A36A1D43E36A2C
:1022B8001BB12046FFF770FF90B975612046FFF704
:1022C8004BFFE26D3F23934083600020606501234C
:1022D80084F83530C9E7E16A206B01430A43DBE73C
:1022E80040236365012084F83500BEE70120BCE780
:1022F8003F8010F0F0B583B0044600230193724B81
:102308001D68724BA3FB0535AD0A876D3E68C26D2B
:1023180008239340334210D003681A6812F0040F60
:102328000BD01A6822F004021A60C26D0823934089
:10233800BB60436D43F001034365E26D01239340A5
:10234800334209D02268526912F0800F04D0BB6072
:10235800636D43F002036365E26D042393403342E7
:1023680009D02268126812F0020F04D0BB60636DB6
:1023780043F004036365E26D10239340334224D095
:102388002268126812F0080F1FD0BB6023681A6811
:1023980012F4802F0DD01B6813F4002F04D1236C86
:1023A8009BB12046984710E0A36C73B1204698472C
:1023B8000BE01A6812F4807F03D11A6822F0080231
:1023C8001A60236C0BB120469847E26D2023934096
:1023D800334255D02268126812F0100F50D0BB60FB
:1023E80094F83530DBB2052B0ED023681A6812F446
:1023F800802F33D01B6813F4002F2AD1636C002B75
:102408003ED0204698473BE02268136823F0160325
:1024180013602268536923F080035361236CA3B1CE
:102428002268136823F008031360E26D3F2393408A
:10243800BB60002384F83430012384F83530236DE1
:10244800002B3FD0204698473CE0A36C002BE7D1F7
:10245800EBE7E36BA3B12046984711E01A6812F442
:10246800807F09D11A6822F010021A60002384F8CC
:102478003430012384F83530E36B0BB1204698479C
:10248800636DFBB1636D13F0010F17D0052384F85A
:1024980035302268136823F001031360019B013370
:1024A8000193AB4204D823681B6813F0010FF5D1E0
:1024B800002384F83430012384F83530E36C0BB101
:1024C8002046984703B0F0BD04000020B5814E1B9C
:1024D80000230F2B00F2D980F0B583B039E0072232
:1024E80000E00022B2403A430234684E46F8242005
:1024F800674A1468EA4324EA05064F6817F4803FE0
:1025080001D045EA0406624C2660646802EA0406C3
:102518004F6817F4003F01D045EA04065C4C66603A
:10252800A46802EA04064F6817F4801F01D045EA40
:102538000406574CA660E46822404E6816F4001F53
:1025480001D045EA0402524CE26001330F2B00F23D
:102558009A8001229A400C6804EA020532EA0404CF
:10256800F3D14C68661E012E03D9112C01D0122C10
:1025780012D186685F000324BC4026EA0406CC68B2
:10258800BC4034438460466826EA02064C68C4F3BB
:1025980000129A4032434260C7685E000324B44088
:1025A800E24327EA04078C68B4403C43C4604C68A3
:1025B800022C01D0122C13D1DF08083750F827E07D
:1025C80003F007044FEA840C0F2404FA0CF42EEAF3
:1025D800040E0C6904FA0CF444EA0E0440F827408F
:1025E800046814404A6802F00302B24022430260C1
:1025F8004A6812F0805FA8D000220192254A546CE4
:1026080044F480445464526C02F480420192019A6A
:102618009C08A61C1D4A52F8267003F00302960077
:102628000F22B24027EA02071B4A90423FF459AFF3
:1026380002F5806290421AD002F58062904218D06A
:1026480002F58062904216D002F58062904214D062
:1026580002F58062904212D002F58062904210D05A
:1026680002F5806290423FF43AAF08223AE701222D
:1026780038E7022236E7032234E7042232E705224C
:1026880030E706222EE703B0F0BD7047003801405E
:10269800003C014000380240000002400369194232
:1026A80001D001207047002070470AB1816170474E
:1026B800090481617047000008B5054B5B69034256
:1026C80000D108BD024B5861FEF7C0FAF9E700BF18
:1026D800003C014003685A6912F4806F01D1002060
:1026E80070476FF480625A6100230363202280F8E8
:1026F8003D2080F83E30026C42F00402026480F80B
:102708003C30012070472DE9F04107460D469046C0
:102718001E4622E0FFF73CF8069BC01AB04200D8DC
:10272800DEB900233B63202287F83D2087F83E303E
:102738003A6C42F020023A6487F83C3001201AE0F3
:102748003B689C6925EA0404A4B2B4FA84F46409D9
:10275800A0450FD1B6F1FF3FDCD1C5F30743012BEC
:10276800EED13B685C6925EA0404A4B2B4FA84F4A7
:102778006409EDE70020BDE8F0812DE9F041054648
:102788000E46174698463DE01A6842F400721A60F1
:102798002B686FF480625A6100232B63202285F82E
:1027A8003D2085F83E302A6C42F004022A6485F800
:1027B8003C30012034E0FEF7EBFFA0EB0800B84204
:1027C80000D8FFB900232B63202285F83D2085F827
:1027D8003E302A6C42F020022A6485F83C30012001
:1027E8001EE02B689C6926EA0404A4B2003C18BFCA
:1027F8000124A4B12B685A6912F4806FC4D1B7F1CF
:10280800FF3FD8D1C6F30743012BEAD12B685C6997
:1028180026EA0404A4B2003C18BF0124E9E700201A
:10282800BDE8F081F0B583B004460D4616461F4654
:10283800C36A082B0DD0012B0BD013F5803F08D0AD
:10284800036B122B0AD10268136843F48073136078
:1028580004E02268136843F48073136000973346DA
:1028680000224FF001112046FFF74DFF80B9236980
:10287800B3F5804F16D1236805F0FE051D613B4670
:10288800324613492046FFF778FFF8B903B0F0BD88
:1028980023681B6813F4807F02D04FF4007323640D
:1028A8000320F3E7EB11226803F0060343F0F0037B
:1028B80013613B46324607492046FFF75EFF18B9C9
:1028C8002368EDB21D61DAE70120DFE70120DDE7CB
:1028D800020001000800010070B504460D461646C6
:1028E80023685B6913F0800F1CD12046FFF7F2FEC6
:1028F800D0B9B5F1FF3FF3D0FEF74AFF801BA842DD
:1029080001D8002DECD100232363202284F83D2038
:1029180084F83E30226C42F02002226484F83C3075
:10292800012000E0002070BD0120FCE770B50446DE
:102938000D46164623685B6913F0040F1CD1204628
:10294800FFF7C8FED0B9B5F1FF3FF3D0FEF720FF7F
:10295800801BA84201D8002DECD10023236320223C
:1029680084F83D2084F83E30226C42F02002226434
:1029780084F83C30012000E0002070BD0120FCE715
:10298800002800F0CC80F8B5044690F83D30002BC4
:1029980077D0242384F83D302268136823F001039C
:1029A80013602268136843F40043136022681368B5
:1029B80023F40043136000F079FC62685A4B9A4292
:1029C80064D85A4B98428CBF00230123002B40F057
:1029D800A880574DA5FB0035AF0C2668716821F01B
:1029E8003F0141EA9541716021680B6A23F03F037A
:1029F80065684D4A95424FD87A1C13430B62256887
:102A0800E96921F44F4121F0FF016368464A934286
:102A18004CD801385B00B0FBF3F0013040F6FC7392
:102A2800184278D0C0F30B030B43EB6121680B68A5
:102A380023F0C003E269206A024313430B60216854
:102A48008B6823F4034323F0FF032269E068024301
:102A580013438B602168CB6823F0FF036269A06988
:102A680002431343CB602268136843F001031360E9
:102A780000202064202384F83D30206384F83E0041
:102A8800F8BD80F83C30FEF753FB82E7294B9842AB
:102A98008CBF0023012399E74FF4967202FB07F2DB
:102AA800254DA5FB025292090132A6E7A268BAB9E0
:102AB800461E03EB4307B6FBF7F60136C6F30B06D3
:102AC800B6FA86F6760946BBC2B9421E03EB430343
:102AD800B2FBF3F20132C2F30B0242F40043A3E764
:102AE800461E03EB830707EB8707B6FBF7F60136AD
:102AF800C6F30B06B6FA86F67609E4E7421E03EB40
:102B0800830303EB8303B2FBF3F20132C2F30B023C
:102B180042F4404388E7042386E7012384E7012041
:102B280070470120ACE700BFA08601007F841E002B
:102B380083DE1B43FF083D00D34D62102DE9F043AF
:102B480085B004460F46914698460C9EFEF720FE37
:102B5800054694F83D00C0B2202804D00227384624
:102B680005B0BDE8F0830095192301224F4920469E
:102B7800FFF7C9FD002840F0928094F83C30012B03
:102B880000F08F80012384F83C3023681A6812F023
:102B9800010F03D11A6842F001021A602268136813
:102BA80023F400631360212384F83D30102384F854
:102BB8003E3000232364C4F82490A4F82A80638D4F
:102BC80023853B4BE3622B46324639462046FFF7C6
:102BD80029FE0746002866D10023039323685A6913
:102BE80003929B690393039B11E0236C042B01D090
:102BF8000127B4E72268136843F400731360F7E70A
:102C08002A4631462046FFF791FE00282ED1238D13
:102C1800002B36D02A4631462046FFF75DFE0028B5
:102C2800E3D1626A236812781A61616A4B1C636295
:102C3800638D9BB2013B9BB26385238D013B9BB2A5
:102C480023852268506910F0040FD9D0002BD7D003
:102C58004B781361636A01336362638D9BB2013BF6
:102C68009BB26385238D013B2385C9E7236C042B25
:102C780001D0012773E72268136843F400731360D7
:102C8800F7E72268136843F400731360202384F87D
:102C98003D30002384F83E3084F83C305FE702275B
:102CA8005DE702275BE7012759E700BF0200100034
:102CB8000000FFFF002800F0D98170B582B00446FB
:102CC800036813F0010F3BD0A64B9B6803F00C037D
:102CD800042B2CD0A34B9B6803F00C03082B21D0AA
:102CE8006368B3F5803F4FD0B3F5A02F52D09D4B0A
:102CF8001A6822F480321A601A6822F480221A6054
:102D08006368002B50D0FEF743FD0546954B1B68C2
:102D180013F4003F14D1FEF73BFD401B6428F5D99E
:102D28000320AAE18F4B5B6813F4800FD8D08D4B3A
:102D38001B6813F4003F03D06368002B00F09881F0
:102D4800236813F0020F54D0864B9B6813F00C0FC6
:102D58003ED0844B9B6803F00C03082B33D0E36808
:102D6800002B67D0804B01221A60FEF711FD054643
:102D78007C4B1B6813F0020F53D1FEF709FD401B73
:102D88000228F5D9032078E1764A136843F48033A2
:102D98001360B5E7734B1A6842F480221A601A6808
:102DA80042F480321A60ABE7FEF7F2FC05466D4B41
:102DB8001B6813F4003FC3D0FEF7EAFC401B6428ED
:102DC800F5D9032059E1674B5B6813F4800FC6D12E
:102DD800644B1B6813F0020F03D0E368012B40F02B
:102DE8004981604A136823F0F803216943EAC10363
:102DF8001360236813F0080F40D0636963B35B4B1B
:102E080001221A60FEF7C4FC0546564B5B6F13F0AF
:102E1800020F33D1FEF7BCFC401B0228F5D9032072
:102E28002BE1504A136823F0F803216943EAC103F0
:102E38001360DEE74C4B00221A60FEF7A9FC05463A
:102E4800484B1B6813F0020FD3D0FEF7A1FC401BC0
:102E58000228F5D9032010E1444B00221A60FEF73E
:102E680097FC05463F4B5B6F13F0020F06D0FEF749
:102E78008FFC401B0228F5D90320FEE0236813F0DD
:102E8800040F78D0374B1B6C13F0805F0DD10023F3
:102E98000193344B1A6C42F080521A641B6C03F095
:102EA80080530193019B012500E00025304B1B68EE
:102EB80013F4807F21D0A368012B32D0052B36D0A4
:102EC800284B1A6F22F001021A671A6F22F00402C7
:102ED8001A67A368002B34D0FEF75AFC0646214B2C
:102EE8001B6F13F0020F45D1FEF752FC801B41F215
:102EF80088339842F3D90320BFE01D4A136843F48E
:102F080080731360FEF744FC0646194B1B6813F4E4
:102F1800807FD0D1FEF73CFC801B0228F5D9032026
:102F2800ABE0104A136F43F001031367D1E70D4B71
:102F38001A6F42F004021A671A6F42F001021A6708
:102F4800C7E7FEF725FC0646064B1B6F13F0020F7A
:102F580010D0FEF71DFC801B41F288339842F3D94C
:102F680003208AE00038024000004742800E4742B2
:102F780000700040E5B9A369002B7DD0464A9268ED
:102F880002F00C02082A51D0022B17D0434B002222
:102F98001A60FEF7FDFB04463F4B1B6813F0007FE9
:102FA80042D0FEF7F5FB001B0228F5D9032064E0A8
:102FB800394A136C23F080531364DCE7374B002243
:102FC8001A60FEF7E5FB0546334B1B6813F0007FDC
:102FD80006D0FEF7DDFB401B0228F5D903204CE0A4
:102FE800E369226A1343626A43EA8213A26A5208B7
:102FF800013A43EA0243E26A43EA0263264A53601B
:10300800264B01221A60FEF7C3FB0446224B1B68BD
:1030180013F0007F06D1FEF7BBFB001B0228F5D991
:1030280003202AE0002028E0002026E0012B26D0FB
:10303800194B5B6803F48001E269914221D103F0E6
:103048003F02216A8A421ED1616A47F6C0721A405D
:103058008A421AD103F44032A16A8A4217D103F096
:103068007063E26A934214D1002006E001207047A1
:10307800012002E0012000E0002002B070BD012024
:10308800FBE70120F9E70120F7E70120F5E7012038
:10309800F3E70120F1E700BF003802406000474233
:1030A800F8B5244B9B6803F00C03042B3DD0082B88
:1030B8003DD1204B5A6802F03F025B6813F4800F41
:1030C80012D01C4B5968C1F3881100231A48A1FB80
:1030D8000001FDF7D3FA174B5B68C3F301430133D3
:1030E8005B00B0FBF3F023E0124B5B68C3F388137B
:1030F8005C010025E41A65F10005AE0146EA946614
:10310800A701381B66EB0501CC0044EA5074C500E2
:10311800E81844F100018B0243EA905384022046E8
:1031280019460023FDF7AAFAD5E7034800E003484B
:10313800F8BD00BF00380240001BB7000024F400AF
:10314800002800F09B8070B50D4604464F4B1B6865
:1031580003F00F038B4208D2CBB24C4A13701368AA
:1031680003F00F038B4240F08B80236813F0020FAB
:1031780017D013F0040F04D0454A936843F4E05382
:103188009360236813F0080F04D0414A936843F40E
:10319800604393603E4A936823F0F003A1680B43B1
:1031A8009360236813F0010F32D06368012B21D09C
:1031B8009A1E012A25D9364A126812F0020F61D0E8
:1031C80033498A6822F0030213438B60FEF7E0FA62
:1031D80006462F4B9B6803F00C036268B3EB820F23
:1031E80016D0FEF7D5FA801B41F288339842F0D901
:1031F800032042E0264A126812F4003FE0D1012081
:103208003BE0234A126812F0007FD9D1012034E054
:103218001E4B1B6803F00F03AB4207D9EAB21B4BE6
:103228001A701B6803F00F03AB422DD1236813F00B
:10323800040F06D0164A936823F4E053E1680B4361
:103248009360236813F0080F07D0114A936823F49A
:103258006043216943EAC1039360FFF721FF0C4BE8
:103268009B68C3F303130B4AD35CD8400A4B18601E
:103278000A4B1868FEF740FA002070BD012070471D
:103288000120FAE70120F8E70120F6E7003C0240B8
:1032980000380240883F0008040000200C0000208D
:1032A800014B1868704700BF0400002008B5FFF7FD
:1032B800F7FF044B9B68C3F38223034AD35CD840CF
:1032C80008BD00BF00380240983F000808B5FFF766
:1032D800E7FF044B9B68C3F34233034AD35CD840EF
:1032E80008BD00BF00380240983F000830B4036AA8
:1032F80023F001030362056A4268846924F07304B9
:103308000B681C4325F002058B682B43104DA8421F
:1033180003D005F58065A84205D123F00803CD68E0
:103328002B4323F004030A4DA84203D005F580651A
:10333800A84205D122F440724D6915438A692A438F
:10334800426084614A684263036230BC704700BFD0
:103358000000014030B4036A23F480730362036AF7
:103368004268C46924F073040D682C4323F4007385
:103378008D6843EA0523124DA84203D005F5806500
:10338800A84206D123F40063CD6843EA052323F459
:1033980080630B4DA84203D005F58065A84207D18C
:1033A80022F440524D6942EA05128D6942EA05123B
:1033B8004260C4614A68C263036230BC704700BFA0
:1033C8000000014030B4036A23F480530362036AA7
:1033D8004468C26922F4E6420D6842EA052223F4F1
:1033E80000538D6843EA0533094DA84203D005F51B
:1033F8008065A84204D124F480444D6944EA8514C8
:103408004460C2614A680264036230BC704700BF0E
:103418000000014030B4036A056A25F00105056221
:10342800846924F0F00444EA021423F00A030B43ED
:103438008461036230BC704730B4056A25F010051A
:1034480005628469036A24F4704444EA023423F070
:10345800A00343EA01138461036230BC70478368A8
:1034680023F070030B4343F00703836070477047F2
:103478007047704770477047704710B50446036837
:103488001A6912F0020F11D0DA6812F0020F0DD08B
:103498006FF002021A610123037703689B6913F036
:1034A800030F70D0FFF7E6FF0023237723681A691C
:1034B80012F0040F12D0DA6812F0040F0ED06FF079
:1034C80004021A610223237723689B6913F4407F5F
:1034D8005FD02046FFF7CEFF0023237723681A69C1
:1034E80012F0080F12D0DA6812F0080F0ED06FF041
:1034F80008021A61042323772368DB6913F0030F9A
:103508004ED02046FFF7B6FF0023237723681A69B9
:1035180012F0100F12D0DA6812F0100F0ED06FF000
:1035280010021A61082323772368DB6913F4407FAC
:103538003DD02046FFF79EFF0023237723681A69B2
:1035480012F0010F03D0DA6812F0010F36D12368A8
:103558001A6912F0800F03D0DA6812F0800F34D1A4
:1035680023681A6912F0400F03D0DA6812F0400F8E
:1035780032D123681A6912F0200F03D0DA6812F0EA
:10358800200F30D110BDFFF774FF2046FFF773FFFF
:103598008AE72046FFF76DFF2046FFF76CFF9BE7A1
:1035A8002046FFF766FF2046FFF765FFACE7204699
:1035B800FFF75FFF2046FFF75EFFBDE76FF00102F0
:1035C8001A612046FFF754FFC1E76FF080021A61C5
:1035D800204600F00AFAC3E76FF040021A6120465D
:1035E800FFF74AFFC5E76FF020021A61204600F096
:1035F800FBF9C7E70368304A904212D0B0F1804F18
:103608000FD0A2F57C4290420BD002F58062904226
:1036180007D002F58062904203D002F578429042CA
:1036280003D123F070034A681343234A90422AD0F7
:10363800B0F1804F27D0A2F57C42904223D002F50A
:10364800806290421FD002F5806290421BD002F542
:103658007842904217D002F57052904213D002F58A
:10366800806290420FD002F5806290420BD0A2F5A2
:103678009832904207D002F58062904203D002F55A
:103688008062904203D123F44073CA68134323F045
:1036980080034A69134303608B68C3620B688362C3
:1036A800054B984203D003F58063984201D10B691A
:1036B800036301234361704700000140B0B110B5B6
:1036C800044690F83D3063B1022384F83D3021462A
:1036D80051F8040BFFF78EFF012384F83D300020DA
:1036E80010BD80F83C30FDF775FEEDE7012070470E
:1036F800B0B110B5044690F83D3063B1022384F8A8
:103708003D30214651F8040BFFF774FF012384F87C
:103718003D30002010BD80F83C30FFF7A8FEEDE7F3
:103728000120704730B4036A23F010030362036A70
:103738004468826922F4E6420D6842EA052223F0D1
:1037480020038D6843EA0513114DA84203D005F5FF
:103758008065A84206D123F08003CD6843EA0513AB
:1037680023F040030A4DA84203D005F58065A8421E
:1037780007D124F440644D6944EA85048D6944EA1C
:103788008504446082614A688263036230BC704782
:103798000000014038B590F83C30012B66D0044653
:1037A8000D46012380F83C30022380F83D300C2A76
:1037B8001AD8DFE802F0071919192019191934194C
:1037C800191947000068FFF791FD2268936943F0D3
:1037D800080393612268936923F0040393612268C4
:1037E800936929690B439361012384F83D300020D4
:1037F80084F83C0038BD0068FFF794FF226893699D
:1038080043F4006393612268936923F480639361AE
:1038180022689369296943EA01239361E4E7006810
:10382800FFF798FD2268D36943F00803D361226843
:10383800D36923F00403D3612268D36929690B4350
:10384800D361D1E70068FFF7BDFD2268D36943F46F
:103858000063D3612268D36923F48063D36122684B
:10386800D369296943EA0123D361BDE70220C1E78F
:1038780010B4846824F47F4442EA03220A432243B2
:10388800826010BC704790F83C30012B66D010B5B0
:103898000446012380F83C30022380F83D3002685A
:1038A800936823F47F4323F0770393600B68602BBE
:1038B80040D022D8402B47D00BD9502B0ED1CA6804
:1038C80049680068FFF7A6FD50212068FFF7C7FD8B
:1038D80004E0202B0CD008D9302B09D0012384F820
:1038E8003D30002084F83C0010BD0BB1102BF5D101
:1038F80019462068FFF7B3FDF0E7702B0ED0B3F53B
:10390800005FEBD1CB684A6889680068FFF7B0FFB1
:103918002268936843F480439360DFE7CB684A6882
:1039280089680068FFF7A4FF2268936843F077036B
:103938009360D3E7CA6849680068FFF77DFD602196
:103948002068FFF78CFDC9E7CA6849680068FFF777
:1039580061FD40212068FFF782FDBFE70220704724
:1039680090F83C30012B3BD030B4012380F83C3038
:10397800022380F83D3003685C689D6824F0700479
:103988000A6822435A600368164A93421AD0B3F170
:10399800804F17D0A2F57C42934213D002F5806283
:1039A80093420FD002F5806293420BD002F5784221
:1039B800934207D002F57052934203D0A2F5943295
:1039C800934204D125F080054A6815439D60012380
:1039D80080F83D30002380F83C30184630BC7047F2
:1039E80002207047000001407047704770B50446D8
:1039F8000268136923F44053C1680B431361836859
:103A08000269134342691343C2691A430168CB68C8
:103A180023F4164323F00C031343CB600268536965
:103A280023F4407381690B435361C369B3F5004FB5
:103A380036D00368654A934200F09A8002F58062A6
:103A4800934200F09580FFF731FC0026051846EBFD
:103A580006012D1846EB0101CB0043EA5573EA0035
:103A68001546194663689A009B0F281846EB010112
:103A7800FCF704FE564DA5FB00325109642303FBF5
:103A880011031B013233A5FB03235B0903F0F0028A
:103A980002EB011203F00F03216813448B6093E0DB
:103AA80003684A4A934233D002F5806293422FD08A
:103AB800FFF7FCFB0026051846EB06012D1846EB20
:103AC8000101CB0043EA5573EA00154619466268BE
:103AD8003346921846EB0303281846EB0101FCF71E
:103AE800CDFD3B4DA5FB00325109642303FB1103B7
:103AF800DB003233A5FB03235B095A0002F4F8729A
:103B080002EB011203F00703216813448B605BE0AA
:103B1800FFF7DCFB0026051846EB06012D1846EBDF
:103B28000101CB0043EA5573EA001546194662685D
:103B38003346921846EB0303281846EB0101FCF7BD
:103B48009DFD234DA5FB00325109642303FB11039E
:103B5800DB003233A5FB03235B095A0002F4F87239
:103B680002EB011203F00703216813448B602BE07A
:103B7800FFF7ACFB0026051846EB06012D1846EBAF
:103B88000101CB0043EA5573EA00154619466368FC
:103B98009A009B0F281846EB0101FCF76FFD0C4DAE
:103BA800A5FB00325109642303FB11031B013233C7
:103BB800A5FB03235B0903F0F00202EB011203F0FB
:103BC8000F03216813448B6070BD00BF00100140D3
:103BD8001F85EB5158B310B5044690F839300BB334
:103BE800242384F839302268D36823F40053D3603F
:103BF8002046FFF7FBFE2268136923F49043136104
:103C08002268536923F02A0353612268D36843F476
:103C18000053D3600020E063202384F8393084F80F
:103C28003A3010BD80F83830FDF7C2FCD8E70120E3
:103C38007047000000B583B071B9094B00221A70B3
:103C4800074A50700A230093022378210548FEF79B
:103C580075FF03B05DF804FB014B40221A70EFE7D3
:103C68008C070020D405002008B50021AE20FFF7FE
:103C7800E1FF00212020FFF7DDFF00211020FFF7E2
:103C8800D9FF0021B020FFF7D5FF0021C820FFF79A
:103C9800D1FF00210846FFF7CDFF00211020FFF7D4
:103CA800C9FF00214020FFF7C5FF00218120FFF751
:103CB800C1FF0021FF20FFF7BDFF0021A120FFF772
:103CC800B9FF0021A620FFF7B5FF0021A820FFF7C4
:103CD800B1FF00213F20FFF7ADFF0021A420FFF72F
:103CE800A9FF0021D320FFF7A5FF00210846FFF711
:103CF800A1FF0021D520FFF79DFF0021F020FFF74D
:103D080099FF0021D920FFF795FF00212220FFF716
:103D180091FF0021DA20FFF78DFF00211220FFF725
:103D280089FF0021DB20FFF785FF00212020FFF716
:103D380081FF00218D20FFF77DFF00211420FFF770
:103D480079FF0021AF20FFF775FF08BDDFF834D0F9
:103D5800002103E00C4B5B58435004310B480C4BDB
:103D680042189A42F6D30B4A02E0002342F8043B79
:103D7800094B9A42F9D3FDF7EBFA00F011F8FDF779
:103D88005BFA704700000220C03F000800000020D6
:103D98003C0400203C040020B4070020FEE700009B
:103DA80070B50D4E0D4D761BB61006D0002455F893
:103DB800043B01349847A642F9D1094E094D761BB8
:103DC80000F0D2F8B61006D0002455F8043B0134B0
:103DD8009847A642F9D170BDB43F0008B43F000827
:103DE800BC3F0008B43F0008F0B4860746D0541E14
:103DF800002A3CD0CAB2034601E0013C37D303F89D
:103E0800012B9D07F9D1032C2AD9CDB245EA052506
:103E18000F2C45EA054534D9A4F1100222F00F0C05
:103E280003F120071609674403F1100242E904551B
:103E380042E902551032BA42F8D1721C14F00C0F44
:103E480003EB021204F00F0613D0331F23F0030311
:103E58000433134442F8045B9342FBD106F0030495
:103E68002CB1CAB21C4403F8012B9C42FBD1F0BC14
:103E7800704734461346002CF3D1F8E7144603463E
:103E8800C1E71A462646E0E7024B13B1024800F0A4
:103E980005B8704700000000B13E00080023014645
:103EA8001A46184600F01AB838B5084B084D5B1B7F
:103EB8009C1007D0043B1D44013C55F80439984731
:103EC800002CF9D1BDE8384000F054B8C03F0008D4
:103ED800BC3F0008704700BF704700BF2DE9F0479E
:103EE800DFF880A00646DAF8000098460F469146AB
:103EF800FFF7F0FF1A4B1B68D3F8484124B36568F5
:103F08001F2D26DC5EB9AB1C0135DAF800006560B0
:103F180044F82370FFF7E0FF0020BDE8F08704EBCA
:103F280085030121C3F88890D4F88821A9400A4361
:103F3800022EC4F88821C3F80881E4D1D4F88C3162
:103F48001943C4F88C11DEE703F5A674C3F8484199
:103F5800D5E7DAF80000FFF7BFFF4FF0FF30DCE7E6
:103F6800A83F000838040020F8B500BFF8BC08BC1A
:103F78009E467047F8B500BFF8BC08BC9E4670471F
:103F88000000000000000000010203040607080901
:103F980000000000010203040006101600061016B7
:043FA80010000020E5
:083FAC0008C7FF7F01000000BF
:083FB400913E0008AD01000878
:043FBC00890100086F
:103FC0006740533A0024F400010000001000000094
:103FD00000000000FC02002064030020CC0300204D
:103FE00000000000000000000000000000000000D1
:103FF00000000000000000000000000000000000C1
:1040000000000000000000000000000000000000B0
:1040100000000000000000000000000000000000A0
:104020000000000000000000000000000000000090
:104030000000000000000000000000000000000080
:104040000000000000000000000000000000000070
:104050000000000000000000000000000000000060
:104060000000000000000000000000000000000050
:10407000000000000000000001000000000000003F
:104080000E33CDAB34126DE6ECDE05000B00000004
:104090000000000000000000000000000000000020
:1040A0000000000000000000000000000000000010
:1040B0000000000000000000000000000000000000
:1040C00000000000000000000000000000000000F0
:0C43F0000000000000000000900700200A
:0400000508003D555D
:00000001FF
